{
	"TransactFunction.sol": {
		"Transactions": {
			"abi": [
				{
					"inputs": [],
					"stateMutability": "payable",
					"type": "constructor"
				},
				{
					"inputs": [],
					"name": "GetAccount",
					"outputs": [
						{
							"internalType": "address",
							"name": "",
							"type": "address"
						}
					],
					"stateMutability": "view",
					"type": "function"
				},
				{
					"inputs": [],
					"name": "getBalance",
					"outputs": [
						{
							"internalType": "uint256",
							"name": "",
							"type": "uint256"
						}
					],
					"stateMutability": "view",
					"type": "function"
				},
				{
					"inputs": [
						{
							"internalType": "uint256",
							"name": "_amount",
							"type": "uint256"
						},
						{
							"internalType": "address payable",
							"name": "_to",
							"type": "address"
						}
					],
					"name": "sendEther",
					"outputs": [],
					"stateMutability": "nonpayable",
					"type": "function"
				},
				{
					"inputs": [],
					"name": "withdrawal",
					"outputs": [],
					"stateMutability": "nonpayable",
					"type": "function"
				}
			],
			"devdoc": {
				"kind": "dev",
				"methods": {},
				"version": 1
			},
			"evm": {
				"assembly": "    /* \"TransactFunction.sol\":60:846  contract Transactions {... */\n  mstore(0x40, 0x80)\n    /* \"TransactFunction.sol\":206:216  msg.sender */\n  caller\n    /* \"TransactFunction.sol\":189:194  owner */\n  0x00\n  dup1\n    /* \"TransactFunction.sol\":189:217  owner = payable( msg.sender) */\n  0x0100\n  exp\n  dup2\n  sload\n  dup2\n  0xffffffffffffffffffffffffffffffffffffffff\n  mul\n  not\n  and\n  swap1\n  dup4\n  0xffffffffffffffffffffffffffffffffffffffff\n  and\n  mul\n  or\n  swap1\n  sstore\n  pop\n    /* \"TransactFunction.sol\":60:846  contract Transactions {... */\n  dataSize(sub_0)\n  dup1\n  dataOffset(sub_0)\n  0x00\n  codecopy\n  0x00\n  return\nstop\n\nsub_0: assembly {\n        /* \"TransactFunction.sol\":60:846  contract Transactions {... */\n      mstore(0x40, 0x80)\n      callvalue\n      dup1\n      iszero\n      tag_1\n      jumpi\n      0x00\n      dup1\n      revert\n    tag_1:\n      pop\n      jumpi(tag_2, lt(calldatasize, 0x04))\n      shr(0xe0, calldataload(0x00))\n      dup1\n      0x10f01d18\n      eq\n      tag_3\n      jumpi\n      dup1\n      0x12065fe0\n      eq\n      tag_4\n      jumpi\n      dup1\n      0xcb16d4a2\n      eq\n      tag_5\n      jumpi\n      dup1\n      0xd4e93292\n      eq\n      tag_6\n      jumpi\n    tag_2:\n      0x00\n      dup1\n      revert\n        /* \"TransactFunction.sol\":266:357  function GetAccount() public view returns (address) {... */\n    tag_3:\n      tag_7\n      tag_8\n      jump\t// in\n    tag_7:\n      mload(0x40)\n      tag_9\n      swap2\n      swap1\n      tag_10\n      jump\t// in\n    tag_9:\n      mload(0x40)\n      dup1\n      swap2\n      sub\n      swap1\n      return\n        /* \"TransactFunction.sol\":365:463  function getBalance() public view returns(uint256) {... */\n    tag_4:\n      tag_11\n      tag_12\n      jump\t// in\n    tag_11:\n      mload(0x40)\n      tag_13\n      swap2\n      swap1\n      tag_14\n      jump\t// in\n    tag_13:\n      mload(0x40)\n      dup1\n      swap2\n      sub\n      swap1\n      return\n        /* \"TransactFunction.sol\":473:652  function sendEther(uint _amount, address payable _to) public  {... */\n    tag_5:\n      tag_15\n      0x04\n      dup1\n      calldatasize\n      sub\n      dup2\n      add\n      swap1\n      tag_16\n      swap2\n      swap1\n      tag_17\n      jump\t// in\n    tag_16:\n      tag_18\n      jump\t// in\n    tag_15:\n      stop\n        /* \"TransactFunction.sol\":660:839  function withdrawal( ) public {... */\n    tag_6:\n      tag_19\n      tag_20\n      jump\t// in\n    tag_19:\n      stop\n        /* \"TransactFunction.sol\":266:357  function GetAccount() public view returns (address) {... */\n    tag_8:\n        /* \"TransactFunction.sol\":309:316  address */\n      0x00\n        /* \"TransactFunction.sol\":344:348  this */\n      address\n        /* \"TransactFunction.sol\":329:349  return address(this) */\n      swap1\n      pop\n        /* \"TransactFunction.sol\":266:357  function GetAccount() public view returns (address) {... */\n      swap1\n      jump\t// out\n        /* \"TransactFunction.sol\":365:463  function getBalance() public view returns(uint256) {... */\n    tag_12:\n        /* \"TransactFunction.sol\":407:414  uint256 */\n      0x00\n        /* \"TransactFunction.sol\":434:455  address(this).balance */\n      selfbalance\n        /* \"TransactFunction.sol\":427:455  return address(this).balance */\n      swap1\n      pop\n        /* \"TransactFunction.sol\":365:463  function getBalance() public view returns(uint256) {... */\n      swap1\n      jump\t// out\n        /* \"TransactFunction.sol\":473:652  function sendEther(uint _amount, address payable _to) public  {... */\n    tag_18:\n        /* \"TransactFunction.sol\":547:559  bool success */\n      0x00\n        /* \"TransactFunction.sol\":565:568  _to */\n      dup2\n        /* \"TransactFunction.sol\":565:573  _to.call */\n      0xffffffffffffffffffffffffffffffffffffffff\n      and\n        /* \"TransactFunction.sol\":581:588  _amount */\n      dup4\n        /* \"TransactFunction.sol\":565:593  _to.call{value: _amount}(\"\") */\n      mload(0x40)\n      tag_24\n      swap1\n      tag_25\n      jump\t// in\n    tag_24:\n      0x00\n      mload(0x40)\n      dup1\n      dup4\n      sub\n      dup2\n      dup6\n      dup8\n      gas\n      call\n      swap3\n      pop\n      pop\n      pop\n      returndatasize\n      dup1\n      0x00\n      dup2\n      eq\n      tag_28\n      jumpi\n      mload(0x40)\n      swap2\n      pop\n      and(add(returndatasize, 0x3f), not(0x1f))\n      dup3\n      add\n      0x40\n      mstore\n      returndatasize\n      dup3\n      mstore\n      returndatasize\n      0x00\n      0x20\n      dup5\n      add\n      returndatacopy\n      jump(tag_27)\n    tag_28:\n      0x60\n      swap2\n      pop\n    tag_27:\n      pop\n        /* \"TransactFunction.sol\":546:593  (bool success, ) = _to.call{value: _amount}(\"\") */\n      pop\n      swap1\n      pop\n        /* \"TransactFunction.sol\":612:619  success */\n      dup1\n        /* \"TransactFunction.sol\":604:644  require(success, \"Failed to send Ether\") */\n      tag_29\n      jumpi\n      mload(0x40)\n      0x08c379a000000000000000000000000000000000000000000000000000000000\n      dup2\n      mstore\n      0x04\n      add\n      tag_30\n      swap1\n      tag_31\n      jump\t// in\n    tag_30:\n      mload(0x40)\n      dup1\n      swap2\n      sub\n      swap1\n      revert\n    tag_29:\n        /* \"TransactFunction.sol\":535:652  {... */\n      pop\n        /* \"TransactFunction.sol\":473:652  function sendEther(uint _amount, address payable _to) public  {... */\n      pop\n      pop\n      jump\t// out\n        /* \"TransactFunction.sol\":660:839  function withdrawal( ) public {... */\n    tag_20:\n        /* \"TransactFunction.sol\":697:711  uint256 amount */\n      0x00\n        /* \"TransactFunction.sol\":714:735  address(this).balance */\n      selfbalance\n        /* \"TransactFunction.sol\":697:735  uint256 amount = address(this).balance */\n      swap1\n      pop\n        /* \"TransactFunction.sol\":745:757  bool success */\n      0x00\n        /* \"TransactFunction.sol\":763:768  owner */\n      dup1\n      0x00\n      swap1\n      sload\n      swap1\n      0x0100\n      exp\n      swap1\n      div\n      0xffffffffffffffffffffffffffffffffffffffff\n      and\n        /* \"TransactFunction.sol\":763:773  owner.call */\n      0xffffffffffffffffffffffffffffffffffffffff\n      and\n        /* \"TransactFunction.sol\":781:787  amount */\n      dup3\n        /* \"TransactFunction.sol\":763:792  owner.call{value: amount}(\"\") */\n      mload(0x40)\n      tag_33\n      swap1\n      tag_25\n      jump\t// in\n    tag_33:\n      0x00\n      mload(0x40)\n      dup1\n      dup4\n      sub\n      dup2\n      dup6\n      dup8\n      gas\n      call\n      swap3\n      pop\n      pop\n      pop\n      returndatasize\n      dup1\n      0x00\n      dup2\n      eq\n      tag_36\n      jumpi\n      mload(0x40)\n      swap2\n      pop\n      and(add(returndatasize, 0x3f), not(0x1f))\n      dup3\n      add\n      0x40\n      mstore\n      returndatasize\n      dup3\n      mstore\n      returndatasize\n      0x00\n      0x20\n      dup5\n      add\n      returndatacopy\n      jump(tag_35)\n    tag_36:\n      0x60\n      swap2\n      pop\n    tag_35:\n      pop\n        /* \"TransactFunction.sol\":744:792  (bool success, ) = owner.call{value: amount}(\"\") */\n      pop\n      swap1\n      pop\n        /* \"TransactFunction.sol\":807:814  success */\n      dup1\n        /* \"TransactFunction.sol\":799:833  require(success, \"Failed to send\") */\n      tag_37\n      jumpi\n      mload(0x40)\n      0x08c379a000000000000000000000000000000000000000000000000000000000\n      dup2\n      mstore\n      0x04\n      add\n      tag_38\n      swap1\n      tag_39\n      jump\t// in\n    tag_38:\n      mload(0x40)\n      dup1\n      swap2\n      sub\n      swap1\n      revert\n    tag_37:\n        /* \"TransactFunction.sol\":690:839  {... */\n      pop\n      pop\n        /* \"TransactFunction.sol\":660:839  function withdrawal( ) public {... */\n      jump\t// out\n        /* \"#utility.yul\":7:133   */\n    tag_40:\n        /* \"#utility.yul\":44:51   */\n      0x00\n        /* \"#utility.yul\":84:126   */\n      0xffffffffffffffffffffffffffffffffffffffff\n        /* \"#utility.yul\":77:82   */\n      dup3\n        /* \"#utility.yul\":73:127   */\n      and\n        /* \"#utility.yul\":62:127   */\n      swap1\n      pop\n        /* \"#utility.yul\":7:133   */\n      swap2\n      swap1\n      pop\n      jump\t// out\n        /* \"#utility.yul\":139:235   */\n    tag_41:\n        /* \"#utility.yul\":176:183   */\n      0x00\n        /* \"#utility.yul\":205:229   */\n      tag_64\n        /* \"#utility.yul\":223:228   */\n      dup3\n        /* \"#utility.yul\":205:229   */\n      tag_40\n      jump\t// in\n    tag_64:\n        /* \"#utility.yul\":194:229   */\n      swap1\n      pop\n        /* \"#utility.yul\":139:235   */\n      swap2\n      swap1\n      pop\n      jump\t// out\n        /* \"#utility.yul\":241:359   */\n    tag_42:\n        /* \"#utility.yul\":328:352   */\n      tag_66\n        /* \"#utility.yul\":346:351   */\n      dup2\n        /* \"#utility.yul\":328:352   */\n      tag_41\n      jump\t// in\n    tag_66:\n        /* \"#utility.yul\":323:326   */\n      dup3\n        /* \"#utility.yul\":316:353   */\n      mstore\n        /* \"#utility.yul\":241:359   */\n      pop\n      pop\n      jump\t// out\n        /* \"#utility.yul\":365:587   */\n    tag_10:\n        /* \"#utility.yul\":458:462   */\n      0x00\n        /* \"#utility.yul\":496:498   */\n      0x20\n        /* \"#utility.yul\":485:494   */\n      dup3\n        /* \"#utility.yul\":481:499   */\n      add\n        /* \"#utility.yul\":473:499   */\n      swap1\n      pop\n        /* \"#utility.yul\":509:580   */\n      tag_68\n        /* \"#utility.yul\":577:578   */\n      0x00\n        /* \"#utility.yul\":566:575   */\n      dup4\n        /* \"#utility.yul\":562:579   */\n      add\n        /* \"#utility.yul\":553:559   */\n      dup5\n        /* \"#utility.yul\":509:580   */\n      tag_42\n      jump\t// in\n    tag_68:\n        /* \"#utility.yul\":365:587   */\n      swap3\n      swap2\n      pop\n      pop\n      jump\t// out\n        /* \"#utility.yul\":593:670   */\n    tag_43:\n        /* \"#utility.yul\":630:637   */\n      0x00\n        /* \"#utility.yul\":659:664   */\n      dup2\n        /* \"#utility.yul\":648:664   */\n      swap1\n      pop\n        /* \"#utility.yul\":593:670   */\n      swap2\n      swap1\n      pop\n      jump\t// out\n        /* \"#utility.yul\":676:794   */\n    tag_44:\n        /* \"#utility.yul\":763:787   */\n      tag_71\n        /* \"#utility.yul\":781:786   */\n      dup2\n        /* \"#utility.yul\":763:787   */\n      tag_43\n      jump\t// in\n    tag_71:\n        /* \"#utility.yul\":758:761   */\n      dup3\n        /* \"#utility.yul\":751:788   */\n      mstore\n        /* \"#utility.yul\":676:794   */\n      pop\n      pop\n      jump\t// out\n        /* \"#utility.yul\":800:1022   */\n    tag_14:\n        /* \"#utility.yul\":893:897   */\n      0x00\n        /* \"#utility.yul\":931:933   */\n      0x20\n        /* \"#utility.yul\":920:929   */\n      dup3\n        /* \"#utility.yul\":916:934   */\n      add\n        /* \"#utility.yul\":908:934   */\n      swap1\n      pop\n        /* \"#utility.yul\":944:1015   */\n      tag_73\n        /* \"#utility.yul\":1012:1013   */\n      0x00\n        /* \"#utility.yul\":1001:1010   */\n      dup4\n        /* \"#utility.yul\":997:1014   */\n      add\n        /* \"#utility.yul\":988:994   */\n      dup5\n        /* \"#utility.yul\":944:1015   */\n      tag_44\n      jump\t// in\n    tag_73:\n        /* \"#utility.yul\":800:1022   */\n      swap3\n      swap2\n      pop\n      pop\n      jump\t// out\n        /* \"#utility.yul\":1109:1226   */\n    tag_46:\n        /* \"#utility.yul\":1218:1219   */\n      0x00\n        /* \"#utility.yul\":1215:1216   */\n      dup1\n        /* \"#utility.yul\":1208:1220   */\n      revert\n        /* \"#utility.yul\":1355:1477   */\n    tag_48:\n        /* \"#utility.yul\":1428:1452   */\n      tag_78\n        /* \"#utility.yul\":1446:1451   */\n      dup2\n        /* \"#utility.yul\":1428:1452   */\n      tag_43\n      jump\t// in\n    tag_78:\n        /* \"#utility.yul\":1421:1426   */\n      dup2\n        /* \"#utility.yul\":1418:1453   */\n      eq\n        /* \"#utility.yul\":1408:1471   */\n      tag_79\n      jumpi\n        /* \"#utility.yul\":1467:1468   */\n      0x00\n        /* \"#utility.yul\":1464:1465   */\n      dup1\n        /* \"#utility.yul\":1457:1469   */\n      revert\n        /* \"#utility.yul\":1408:1471   */\n    tag_79:\n        /* \"#utility.yul\":1355:1477   */\n      pop\n      jump\t// out\n        /* \"#utility.yul\":1483:1622   */\n    tag_49:\n        /* \"#utility.yul\":1529:1534   */\n      0x00\n        /* \"#utility.yul\":1567:1573   */\n      dup2\n        /* \"#utility.yul\":1554:1574   */\n      calldataload\n        /* \"#utility.yul\":1545:1574   */\n      swap1\n      pop\n        /* \"#utility.yul\":1583:1616   */\n      tag_81\n        /* \"#utility.yul\":1610:1615   */\n      dup2\n        /* \"#utility.yul\":1583:1616   */\n      tag_48\n      jump\t// in\n    tag_81:\n        /* \"#utility.yul\":1483:1622   */\n      swap3\n      swap2\n      pop\n      pop\n      jump\t// out\n        /* \"#utility.yul\":1628:1732   */\n    tag_50:\n        /* \"#utility.yul\":1673:1680   */\n      0x00\n        /* \"#utility.yul\":1702:1726   */\n      tag_83\n        /* \"#utility.yul\":1720:1725   */\n      dup3\n        /* \"#utility.yul\":1702:1726   */\n      tag_40\n      jump\t// in\n    tag_83:\n        /* \"#utility.yul\":1691:1726   */\n      swap1\n      pop\n        /* \"#utility.yul\":1628:1732   */\n      swap2\n      swap1\n      pop\n      jump\t// out\n        /* \"#utility.yul\":1738:1876   */\n    tag_51:\n        /* \"#utility.yul\":1819:1851   */\n      tag_85\n        /* \"#utility.yul\":1845:1850   */\n      dup2\n        /* \"#utility.yul\":1819:1851   */\n      tag_50\n      jump\t// in\n    tag_85:\n        /* \"#utility.yul\":1812:1817   */\n      dup2\n        /* \"#utility.yul\":1809:1852   */\n      eq\n        /* \"#utility.yul\":1799:1870   */\n      tag_86\n      jumpi\n        /* \"#utility.yul\":1866:1867   */\n      0x00\n        /* \"#utility.yul\":1863:1864   */\n      dup1\n        /* \"#utility.yul\":1856:1868   */\n      revert\n        /* \"#utility.yul\":1799:1870   */\n    tag_86:\n        /* \"#utility.yul\":1738:1876   */\n      pop\n      jump\t// out\n        /* \"#utility.yul\":1882:2037   */\n    tag_52:\n        /* \"#utility.yul\":1936:1941   */\n      0x00\n        /* \"#utility.yul\":1974:1980   */\n      dup2\n        /* \"#utility.yul\":1961:1981   */\n      calldataload\n        /* \"#utility.yul\":1952:1981   */\n      swap1\n      pop\n        /* \"#utility.yul\":1990:2031   */\n      tag_88\n        /* \"#utility.yul\":2025:2030   */\n      dup2\n        /* \"#utility.yul\":1990:2031   */\n      tag_51\n      jump\t// in\n    tag_88:\n        /* \"#utility.yul\":1882:2037   */\n      swap3\n      swap2\n      pop\n      pop\n      jump\t// out\n        /* \"#utility.yul\":2043:2533   */\n    tag_17:\n        /* \"#utility.yul\":2119:2125   */\n      0x00\n        /* \"#utility.yul\":2127:2133   */\n      dup1\n        /* \"#utility.yul\":2176:2178   */\n      0x40\n        /* \"#utility.yul\":2164:2173   */\n      dup4\n        /* \"#utility.yul\":2155:2162   */\n      dup6\n        /* \"#utility.yul\":2151:2174   */\n      sub\n        /* \"#utility.yul\":2147:2179   */\n      slt\n        /* \"#utility.yul\":2144:2263   */\n      iszero\n      tag_90\n      jumpi\n        /* \"#utility.yul\":2182:2261   */\n      tag_91\n      tag_46\n      jump\t// in\n    tag_91:\n        /* \"#utility.yul\":2144:2263   */\n    tag_90:\n        /* \"#utility.yul\":2302:2303   */\n      0x00\n        /* \"#utility.yul\":2327:2380   */\n      tag_92\n        /* \"#utility.yul\":2372:2379   */\n      dup6\n        /* \"#utility.yul\":2363:2369   */\n      dup3\n        /* \"#utility.yul\":2352:2361   */\n      dup7\n        /* \"#utility.yul\":2348:2370   */\n      add\n        /* \"#utility.yul\":2327:2380   */\n      tag_49\n      jump\t// in\n    tag_92:\n        /* \"#utility.yul\":2317:2380   */\n      swap3\n      pop\n        /* \"#utility.yul\":2273:2390   */\n      pop\n        /* \"#utility.yul\":2429:2431   */\n      0x20\n        /* \"#utility.yul\":2455:2516   */\n      tag_93\n        /* \"#utility.yul\":2508:2515   */\n      dup6\n        /* \"#utility.yul\":2499:2505   */\n      dup3\n        /* \"#utility.yul\":2488:2497   */\n      dup7\n        /* \"#utility.yul\":2484:2506   */\n      add\n        /* \"#utility.yul\":2455:2516   */\n      tag_52\n      jump\t// in\n    tag_93:\n        /* \"#utility.yul\":2445:2516   */\n      swap2\n      pop\n        /* \"#utility.yul\":2400:2526   */\n      pop\n        /* \"#utility.yul\":2043:2533   */\n      swap3\n      pop\n      swap3\n      swap1\n      pop\n      jump\t// out\n        /* \"#utility.yul\":2539:2686   */\n    tag_53:\n        /* \"#utility.yul\":2640:2651   */\n      0x00\n        /* \"#utility.yul\":2677:2680   */\n      dup2\n        /* \"#utility.yul\":2662:2680   */\n      swap1\n      pop\n        /* \"#utility.yul\":2539:2686   */\n      swap3\n      swap2\n      pop\n      pop\n      jump\t// out\n        /* \"#utility.yul\":2692:2806   */\n    tag_54:\n      pop\n      jump\t// out\n        /* \"#utility.yul\":2812:3210   */\n    tag_55:\n        /* \"#utility.yul\":2971:2974   */\n      0x00\n        /* \"#utility.yul\":2992:3075   */\n      tag_97\n        /* \"#utility.yul\":3073:3074   */\n      0x00\n        /* \"#utility.yul\":3068:3071   */\n      dup4\n        /* \"#utility.yul\":2992:3075   */\n      tag_53\n      jump\t// in\n    tag_97:\n        /* \"#utility.yul\":2985:3075   */\n      swap2\n      pop\n        /* \"#utility.yul\":3084:3177   */\n      tag_98\n        /* \"#utility.yul\":3173:3176   */\n      dup3\n        /* \"#utility.yul\":3084:3177   */\n      tag_54\n      jump\t// in\n    tag_98:\n        /* \"#utility.yul\":3202:3203   */\n      0x00\n        /* \"#utility.yul\":3197:3200   */\n      dup3\n        /* \"#utility.yul\":3193:3204   */\n      add\n        /* \"#utility.yul\":3186:3204   */\n      swap1\n      pop\n        /* \"#utility.yul\":2812:3210   */\n      swap2\n      swap1\n      pop\n      jump\t// out\n        /* \"#utility.yul\":3216:3595   */\n    tag_25:\n        /* \"#utility.yul\":3400:3403   */\n      0x00\n        /* \"#utility.yul\":3422:3569   */\n      tag_100\n        /* \"#utility.yul\":3565:3568   */\n      dup3\n        /* \"#utility.yul\":3422:3569   */\n      tag_55\n      jump\t// in\n    tag_100:\n        /* \"#utility.yul\":3415:3569   */\n      swap2\n      pop\n        /* \"#utility.yul\":3586:3589   */\n      dup2\n        /* \"#utility.yul\":3579:3589   */\n      swap1\n      pop\n        /* \"#utility.yul\":3216:3595   */\n      swap2\n      swap1\n      pop\n      jump\t// out\n        /* \"#utility.yul\":3601:3770   */\n    tag_56:\n        /* \"#utility.yul\":3685:3696   */\n      0x00\n        /* \"#utility.yul\":3719:3725   */\n      dup3\n        /* \"#utility.yul\":3714:3717   */\n      dup3\n        /* \"#utility.yul\":3707:3726   */\n      mstore\n        /* \"#utility.yul\":3759:3763   */\n      0x20\n        /* \"#utility.yul\":3754:3757   */\n      dup3\n        /* \"#utility.yul\":3750:3764   */\n      add\n        /* \"#utility.yul\":3735:3764   */\n      swap1\n      pop\n        /* \"#utility.yul\":3601:3770   */\n      swap3\n      swap2\n      pop\n      pop\n      jump\t// out\n        /* \"#utility.yul\":3776:3946   */\n    tag_57:\n        /* \"#utility.yul\":3916:3938   */\n      0x4661696c656420746f2073656e64204574686572000000000000000000000000\n        /* \"#utility.yul\":3912:3913   */\n      0x00\n        /* \"#utility.yul\":3904:3910   */\n      dup3\n        /* \"#utility.yul\":3900:3914   */\n      add\n        /* \"#utility.yul\":3893:3939   */\n      mstore\n        /* \"#utility.yul\":3776:3946   */\n      pop\n      jump\t// out\n        /* \"#utility.yul\":3952:4318   */\n    tag_58:\n        /* \"#utility.yul\":4094:4097   */\n      0x00\n        /* \"#utility.yul\":4115:4182   */\n      tag_104\n        /* \"#utility.yul\":4179:4181   */\n      0x14\n        /* \"#utility.yul\":4174:4177   */\n      dup4\n        /* \"#utility.yul\":4115:4182   */\n      tag_56\n      jump\t// in\n    tag_104:\n        /* \"#utility.yul\":4108:4182   */\n      swap2\n      pop\n        /* \"#utility.yul\":4191:4284   */\n      tag_105\n        /* \"#utility.yul\":4280:4283   */\n      dup3\n        /* \"#utility.yul\":4191:4284   */\n      tag_57\n      jump\t// in\n    tag_105:\n        /* \"#utility.yul\":4309:4311   */\n      0x20\n        /* \"#utility.yul\":4304:4307   */\n      dup3\n        /* \"#utility.yul\":4300:4312   */\n      add\n        /* \"#utility.yul\":4293:4312   */\n      swap1\n      pop\n        /* \"#utility.yul\":3952:4318   */\n      swap2\n      swap1\n      pop\n      jump\t// out\n        /* \"#utility.yul\":4324:4743   */\n    tag_31:\n        /* \"#utility.yul\":4490:4494   */\n      0x00\n        /* \"#utility.yul\":4528:4530   */\n      0x20\n        /* \"#utility.yul\":4517:4526   */\n      dup3\n        /* \"#utility.yul\":4513:4531   */\n      add\n        /* \"#utility.yul\":4505:4531   */\n      swap1\n      pop\n        /* \"#utility.yul\":4577:4586   */\n      dup2\n        /* \"#utility.yul\":4571:4575   */\n      dup2\n        /* \"#utility.yul\":4567:4587   */\n      sub\n        /* \"#utility.yul\":4563:4564   */\n      0x00\n        /* \"#utility.yul\":4552:4561   */\n      dup4\n        /* \"#utility.yul\":4548:4565   */\n      add\n        /* \"#utility.yul\":4541:4588   */\n      mstore\n        /* \"#utility.yul\":4605:4736   */\n      tag_107\n        /* \"#utility.yul\":4731:4735   */\n      dup2\n        /* \"#utility.yul\":4605:4736   */\n      tag_58\n      jump\t// in\n    tag_107:\n        /* \"#utility.yul\":4597:4736   */\n      swap1\n      pop\n        /* \"#utility.yul\":4324:4743   */\n      swap2\n      swap1\n      pop\n      jump\t// out\n        /* \"#utility.yul\":4749:4913   */\n    tag_59:\n        /* \"#utility.yul\":4889:4905   */\n      0x4661696c656420746f2073656e64000000000000000000000000000000000000\n        /* \"#utility.yul\":4885:4886   */\n      0x00\n        /* \"#utility.yul\":4877:4883   */\n      dup3\n        /* \"#utility.yul\":4873:4887   */\n      add\n        /* \"#utility.yul\":4866:4906   */\n      mstore\n        /* \"#utility.yul\":4749:4913   */\n      pop\n      jump\t// out\n        /* \"#utility.yul\":4919:5285   */\n    tag_60:\n        /* \"#utility.yul\":5061:5064   */\n      0x00\n        /* \"#utility.yul\":5082:5149   */\n      tag_110\n        /* \"#utility.yul\":5146:5148   */\n      0x0e\n        /* \"#utility.yul\":5141:5144   */\n      dup4\n        /* \"#utility.yul\":5082:5149   */\n      tag_56\n      jump\t// in\n    tag_110:\n        /* \"#utility.yul\":5075:5149   */\n      swap2\n      pop\n        /* \"#utility.yul\":5158:5251   */\n      tag_111\n        /* \"#utility.yul\":5247:5250   */\n      dup3\n        /* \"#utility.yul\":5158:5251   */\n      tag_59\n      jump\t// in\n    tag_111:\n        /* \"#utility.yul\":5276:5278   */\n      0x20\n        /* \"#utility.yul\":5271:5274   */\n      dup3\n        /* \"#utility.yul\":5267:5279   */\n      add\n        /* \"#utility.yul\":5260:5279   */\n      swap1\n      pop\n        /* \"#utility.yul\":4919:5285   */\n      swap2\n      swap1\n      pop\n      jump\t// out\n        /* \"#utility.yul\":5291:5710   */\n    tag_39:\n        /* \"#utility.yul\":5457:5461   */\n      0x00\n        /* \"#utility.yul\":5495:5497   */\n      0x20\n        /* \"#utility.yul\":5484:5493   */\n      dup3\n        /* \"#utility.yul\":5480:5498   */\n      add\n        /* \"#utility.yul\":5472:5498   */\n      swap1\n      pop\n        /* \"#utility.yul\":5544:5553   */\n      dup2\n        /* \"#utility.yul\":5538:5542   */\n      dup2\n        /* \"#utility.yul\":5534:5554   */\n      sub\n        /* \"#utility.yul\":5530:5531   */\n      0x00\n        /* \"#utility.yul\":5519:5528   */\n      dup4\n        /* \"#utility.yul\":5515:5532   */\n      add\n        /* \"#utility.yul\":5508:5555   */\n      mstore\n        /* \"#utility.yul\":5572:5703   */\n      tag_113\n        /* \"#utility.yul\":5698:5702   */\n      dup2\n        /* \"#utility.yul\":5572:5703   */\n      tag_60\n      jump\t// in\n    tag_113:\n        /* \"#utility.yul\":5564:5703   */\n      swap1\n      pop\n        /* \"#utility.yul\":5291:5710   */\n      swap2\n      swap1\n      pop\n      jump\t// out\n\n    auxdata: 0xa2646970667358221220a93381137e4908d1eb469a1994b77ea7746eea5891e70afd4cd566b94a53134b64736f6c63430008100033\n}\n",
				"bytecode": {
					"linkReferences": {},
					"object": "6080604052336000806101000a81548173ffffffffffffffffffffffffffffffffffffffff021916908373ffffffffffffffffffffffffffffffffffffffff1602179055506104ee806100536000396000f3fe608060405234801561001057600080fd5b506004361061004c5760003560e01c806310f01d181461005157806312065fe01461006f578063cb16d4a21461008d578063d4e93292146100a9575b600080fd5b6100596100b3565b604051610066919061028b565b60405180910390f35b6100776100bb565b60405161008491906102bf565b60405180910390f35b6100a760048036038101906100a29190610349565b6100c3565b005b6100b1610174565b005b600030905090565b600047905090565b60008173ffffffffffffffffffffffffffffffffffffffff16836040516100e9906103ba565b60006040518083038185875af1925050503d8060008114610126576040519150601f19603f3d011682016040523d82523d6000602084013e61012b565b606091505b505090508061016f576040517f08c379a00000000000000000000000000000000000000000000000000000000081526004016101669061042c565b60405180910390fd5b505050565b600047905060008060009054906101000a900473ffffffffffffffffffffffffffffffffffffffff1673ffffffffffffffffffffffffffffffffffffffff16826040516101c0906103ba565b60006040518083038185875af1925050503d80600081146101fd576040519150601f19603f3d011682016040523d82523d6000602084013e610202565b606091505b5050905080610246576040517f08c379a000000000000000000000000000000000000000000000000000000000815260040161023d90610498565b60405180910390fd5b5050565b600073ffffffffffffffffffffffffffffffffffffffff82169050919050565b60006102758261024a565b9050919050565b6102858161026a565b82525050565b60006020820190506102a0600083018461027c565b92915050565b6000819050919050565b6102b9816102a6565b82525050565b60006020820190506102d460008301846102b0565b92915050565b600080fd5b6102e8816102a6565b81146102f357600080fd5b50565b600081359050610305816102df565b92915050565b60006103168261024a565b9050919050565b6103268161030b565b811461033157600080fd5b50565b6000813590506103438161031d565b92915050565b600080604083850312156103605761035f6102da565b5b600061036e858286016102f6565b925050602061037f85828601610334565b9150509250929050565b600081905092915050565b50565b60006103a4600083610389565b91506103af82610394565b600082019050919050565b60006103c582610397565b9150819050919050565b600082825260208201905092915050565b7f4661696c656420746f2073656e64204574686572000000000000000000000000600082015250565b60006104166014836103cf565b9150610421826103e0565b602082019050919050565b6000602082019050818103600083015261044581610409565b9050919050565b7f4661696c656420746f2073656e64000000000000000000000000000000000000600082015250565b6000610482600e836103cf565b915061048d8261044c565b602082019050919050565b600060208201905081810360008301526104b181610475565b905091905056fea2646970667358221220a93381137e4908d1eb469a1994b77ea7746eea5891e70afd4cd566b94a53134b64736f6c63430008100033",
					"opcodes": "PUSH1 0x80 PUSH1 0x40 MSTORE CALLER PUSH1 0x0 DUP1 PUSH2 0x100 EXP DUP2 SLOAD DUP2 PUSH20 0xFFFFFFFFFFFFFFFFFFFFFFFFFFFFFFFFFFFFFFFF MUL NOT AND SWAP1 DUP4 PUSH20 0xFFFFFFFFFFFFFFFFFFFFFFFFFFFFFFFFFFFFFFFF AND MUL OR SWAP1 SSTORE POP PUSH2 0x4EE DUP1 PUSH2 0x53 PUSH1 0x0 CODECOPY PUSH1 0x0 RETURN INVALID PUSH1 0x80 PUSH1 0x40 MSTORE CALLVALUE DUP1 ISZERO PUSH2 0x10 JUMPI PUSH1 0x0 DUP1 REVERT JUMPDEST POP PUSH1 0x4 CALLDATASIZE LT PUSH2 0x4C JUMPI PUSH1 0x0 CALLDATALOAD PUSH1 0xE0 SHR DUP1 PUSH4 0x10F01D18 EQ PUSH2 0x51 JUMPI DUP1 PUSH4 0x12065FE0 EQ PUSH2 0x6F JUMPI DUP1 PUSH4 0xCB16D4A2 EQ PUSH2 0x8D JUMPI DUP1 PUSH4 0xD4E93292 EQ PUSH2 0xA9 JUMPI JUMPDEST PUSH1 0x0 DUP1 REVERT JUMPDEST PUSH2 0x59 PUSH2 0xB3 JUMP JUMPDEST PUSH1 0x40 MLOAD PUSH2 0x66 SWAP2 SWAP1 PUSH2 0x28B JUMP JUMPDEST PUSH1 0x40 MLOAD DUP1 SWAP2 SUB SWAP1 RETURN JUMPDEST PUSH2 0x77 PUSH2 0xBB JUMP JUMPDEST PUSH1 0x40 MLOAD PUSH2 0x84 SWAP2 SWAP1 PUSH2 0x2BF JUMP JUMPDEST PUSH1 0x40 MLOAD DUP1 SWAP2 SUB SWAP1 RETURN JUMPDEST PUSH2 0xA7 PUSH1 0x4 DUP1 CALLDATASIZE SUB DUP2 ADD SWAP1 PUSH2 0xA2 SWAP2 SWAP1 PUSH2 0x349 JUMP JUMPDEST PUSH2 0xC3 JUMP JUMPDEST STOP JUMPDEST PUSH2 0xB1 PUSH2 0x174 JUMP JUMPDEST STOP JUMPDEST PUSH1 0x0 ADDRESS SWAP1 POP SWAP1 JUMP JUMPDEST PUSH1 0x0 SELFBALANCE SWAP1 POP SWAP1 JUMP JUMPDEST PUSH1 0x0 DUP2 PUSH20 0xFFFFFFFFFFFFFFFFFFFFFFFFFFFFFFFFFFFFFFFF AND DUP4 PUSH1 0x40 MLOAD PUSH2 0xE9 SWAP1 PUSH2 0x3BA JUMP JUMPDEST PUSH1 0x0 PUSH1 0x40 MLOAD DUP1 DUP4 SUB DUP2 DUP6 DUP8 GAS CALL SWAP3 POP POP POP RETURNDATASIZE DUP1 PUSH1 0x0 DUP2 EQ PUSH2 0x126 JUMPI PUSH1 0x40 MLOAD SWAP2 POP PUSH1 0x1F NOT PUSH1 0x3F RETURNDATASIZE ADD AND DUP3 ADD PUSH1 0x40 MSTORE RETURNDATASIZE DUP3 MSTORE RETURNDATASIZE PUSH1 0x0 PUSH1 0x20 DUP5 ADD RETURNDATACOPY PUSH2 0x12B JUMP JUMPDEST PUSH1 0x60 SWAP2 POP JUMPDEST POP POP SWAP1 POP DUP1 PUSH2 0x16F JUMPI PUSH1 0x40 MLOAD PUSH32 0x8C379A000000000000000000000000000000000000000000000000000000000 DUP2 MSTORE PUSH1 0x4 ADD PUSH2 0x166 SWAP1 PUSH2 0x42C JUMP JUMPDEST PUSH1 0x40 MLOAD DUP1 SWAP2 SUB SWAP1 REVERT JUMPDEST POP POP POP JUMP JUMPDEST PUSH1 0x0 SELFBALANCE SWAP1 POP PUSH1 0x0 DUP1 PUSH1 0x0 SWAP1 SLOAD SWAP1 PUSH2 0x100 EXP SWAP1 DIV PUSH20 0xFFFFFFFFFFFFFFFFFFFFFFFFFFFFFFFFFFFFFFFF AND PUSH20 0xFFFFFFFFFFFFFFFFFFFFFFFFFFFFFFFFFFFFFFFF AND DUP3 PUSH1 0x40 MLOAD PUSH2 0x1C0 SWAP1 PUSH2 0x3BA JUMP JUMPDEST PUSH1 0x0 PUSH1 0x40 MLOAD DUP1 DUP4 SUB DUP2 DUP6 DUP8 GAS CALL SWAP3 POP POP POP RETURNDATASIZE DUP1 PUSH1 0x0 DUP2 EQ PUSH2 0x1FD JUMPI PUSH1 0x40 MLOAD SWAP2 POP PUSH1 0x1F NOT PUSH1 0x3F RETURNDATASIZE ADD AND DUP3 ADD PUSH1 0x40 MSTORE RETURNDATASIZE DUP3 MSTORE RETURNDATASIZE PUSH1 0x0 PUSH1 0x20 DUP5 ADD RETURNDATACOPY PUSH2 0x202 JUMP JUMPDEST PUSH1 0x60 SWAP2 POP JUMPDEST POP POP SWAP1 POP DUP1 PUSH2 0x246 JUMPI PUSH1 0x40 MLOAD PUSH32 0x8C379A000000000000000000000000000000000000000000000000000000000 DUP2 MSTORE PUSH1 0x4 ADD PUSH2 0x23D SWAP1 PUSH2 0x498 JUMP JUMPDEST PUSH1 0x40 MLOAD DUP1 SWAP2 SUB SWAP1 REVERT JUMPDEST POP POP JUMP JUMPDEST PUSH1 0x0 PUSH20 0xFFFFFFFFFFFFFFFFFFFFFFFFFFFFFFFFFFFFFFFF DUP3 AND SWAP1 POP SWAP2 SWAP1 POP JUMP JUMPDEST PUSH1 0x0 PUSH2 0x275 DUP3 PUSH2 0x24A JUMP JUMPDEST SWAP1 POP SWAP2 SWAP1 POP JUMP JUMPDEST PUSH2 0x285 DUP2 PUSH2 0x26A JUMP JUMPDEST DUP3 MSTORE POP POP JUMP JUMPDEST PUSH1 0x0 PUSH1 0x20 DUP3 ADD SWAP1 POP PUSH2 0x2A0 PUSH1 0x0 DUP4 ADD DUP5 PUSH2 0x27C JUMP JUMPDEST SWAP3 SWAP2 POP POP JUMP JUMPDEST PUSH1 0x0 DUP2 SWAP1 POP SWAP2 SWAP1 POP JUMP JUMPDEST PUSH2 0x2B9 DUP2 PUSH2 0x2A6 JUMP JUMPDEST DUP3 MSTORE POP POP JUMP JUMPDEST PUSH1 0x0 PUSH1 0x20 DUP3 ADD SWAP1 POP PUSH2 0x2D4 PUSH1 0x0 DUP4 ADD DUP5 PUSH2 0x2B0 JUMP JUMPDEST SWAP3 SWAP2 POP POP JUMP JUMPDEST PUSH1 0x0 DUP1 REVERT JUMPDEST PUSH2 0x2E8 DUP2 PUSH2 0x2A6 JUMP JUMPDEST DUP2 EQ PUSH2 0x2F3 JUMPI PUSH1 0x0 DUP1 REVERT JUMPDEST POP JUMP JUMPDEST PUSH1 0x0 DUP2 CALLDATALOAD SWAP1 POP PUSH2 0x305 DUP2 PUSH2 0x2DF JUMP JUMPDEST SWAP3 SWAP2 POP POP JUMP JUMPDEST PUSH1 0x0 PUSH2 0x316 DUP3 PUSH2 0x24A JUMP JUMPDEST SWAP1 POP SWAP2 SWAP1 POP JUMP JUMPDEST PUSH2 0x326 DUP2 PUSH2 0x30B JUMP JUMPDEST DUP2 EQ PUSH2 0x331 JUMPI PUSH1 0x0 DUP1 REVERT JUMPDEST POP JUMP JUMPDEST PUSH1 0x0 DUP2 CALLDATALOAD SWAP1 POP PUSH2 0x343 DUP2 PUSH2 0x31D JUMP JUMPDEST SWAP3 SWAP2 POP POP JUMP JUMPDEST PUSH1 0x0 DUP1 PUSH1 0x40 DUP4 DUP6 SUB SLT ISZERO PUSH2 0x360 JUMPI PUSH2 0x35F PUSH2 0x2DA JUMP JUMPDEST JUMPDEST PUSH1 0x0 PUSH2 0x36E DUP6 DUP3 DUP7 ADD PUSH2 0x2F6 JUMP JUMPDEST SWAP3 POP POP PUSH1 0x20 PUSH2 0x37F DUP6 DUP3 DUP7 ADD PUSH2 0x334 JUMP JUMPDEST SWAP2 POP POP SWAP3 POP SWAP3 SWAP1 POP JUMP JUMPDEST PUSH1 0x0 DUP2 SWAP1 POP SWAP3 SWAP2 POP POP JUMP JUMPDEST POP JUMP JUMPDEST PUSH1 0x0 PUSH2 0x3A4 PUSH1 0x0 DUP4 PUSH2 0x389 JUMP JUMPDEST SWAP2 POP PUSH2 0x3AF DUP3 PUSH2 0x394 JUMP JUMPDEST PUSH1 0x0 DUP3 ADD SWAP1 POP SWAP2 SWAP1 POP JUMP JUMPDEST PUSH1 0x0 PUSH2 0x3C5 DUP3 PUSH2 0x397 JUMP JUMPDEST SWAP2 POP DUP2 SWAP1 POP SWAP2 SWAP1 POP JUMP JUMPDEST PUSH1 0x0 DUP3 DUP3 MSTORE PUSH1 0x20 DUP3 ADD SWAP1 POP SWAP3 SWAP2 POP POP JUMP JUMPDEST PUSH32 0x4661696C656420746F2073656E64204574686572000000000000000000000000 PUSH1 0x0 DUP3 ADD MSTORE POP JUMP JUMPDEST PUSH1 0x0 PUSH2 0x416 PUSH1 0x14 DUP4 PUSH2 0x3CF JUMP JUMPDEST SWAP2 POP PUSH2 0x421 DUP3 PUSH2 0x3E0 JUMP JUMPDEST PUSH1 0x20 DUP3 ADD SWAP1 POP SWAP2 SWAP1 POP JUMP JUMPDEST PUSH1 0x0 PUSH1 0x20 DUP3 ADD SWAP1 POP DUP2 DUP2 SUB PUSH1 0x0 DUP4 ADD MSTORE PUSH2 0x445 DUP2 PUSH2 0x409 JUMP JUMPDEST SWAP1 POP SWAP2 SWAP1 POP JUMP JUMPDEST PUSH32 0x4661696C656420746F2073656E64000000000000000000000000000000000000 PUSH1 0x0 DUP3 ADD MSTORE POP JUMP JUMPDEST PUSH1 0x0 PUSH2 0x482 PUSH1 0xE DUP4 PUSH2 0x3CF JUMP JUMPDEST SWAP2 POP PUSH2 0x48D DUP3 PUSH2 0x44C JUMP JUMPDEST PUSH1 0x20 DUP3 ADD SWAP1 POP SWAP2 SWAP1 POP JUMP JUMPDEST PUSH1 0x0 PUSH1 0x20 DUP3 ADD SWAP1 POP DUP2 DUP2 SUB PUSH1 0x0 DUP4 ADD MSTORE PUSH2 0x4B1 DUP2 PUSH2 0x475 JUMP JUMPDEST SWAP1 POP SWAP2 SWAP1 POP JUMP INVALID LOG2 PUSH5 0x6970667358 0x22 SLT KECCAK256 0xA9 CALLER DUP2 SGT PUSH31 0x4908D1EB469A1994B77EA7746EEA5891E70AFD4CD566B94A53134B64736F6C PUSH4 0x43000810 STOP CALLER "
				},
				"gasEstimates": {
					"creation": {
						"codeDepositCost": "252400",
						"executionCost": "24536",
						"totalCost": "276936"
					},
					"external": {
						"GetAccount()": "363",
						"getBalance()": "339",
						"sendEther(uint256,address)": "infinite",
						"withdrawal()": "infinite"
					}
				},
				"methodIdentifiers": {
					"GetAccount()": "10f01d18",
					"getBalance()": "12065fe0",
					"sendEther(uint256,address)": "cb16d4a2",
					"withdrawal()": "d4e93292"
				}
			},
			"storageLayout": {
				"storage": [
					{
						"astId": 3,
						"contract": "TransactFunction.sol:Transactions",
						"label": "owner",
						"offset": 0,
						"slot": "0",
						"type": "t_address"
					},
					{
						"astId": 5,
						"contract": "TransactFunction.sol:Transactions",
						"label": "balance",
						"offset": 0,
						"slot": "1",
						"type": "t_address"
					},
					{
						"astId": 7,
						"contract": "TransactFunction.sol:Transactions",
						"label": "account",
						"offset": 0,
						"slot": "2",
						"type": "t_address"
					}
				],
				"types": {
					"t_address": {
						"encoding": "inplace",
						"label": "address",
						"numberOfBytes": "20"
					}
				}
			},
			"userdoc": {
				"kind": "user",
				"methods": {},
				"version": 1
			}
		}
	}
}