{
	"DataTypes.sol": {
		"DataType": {
			"abi": [
				{
					"inputs": [],
					"name": "age",
					"outputs": [
						{
							"internalType": "uint256",
							"name": "",
							"type": "uint256"
						}
					],
					"stateMutability": "view",
					"type": "function"
				},
				{
					"inputs": [],
					"name": "graduate",
					"outputs": [
						{
							"internalType": "bool",
							"name": "",
							"type": "bool"
						}
					],
					"stateMutability": "view",
					"type": "function"
				},
				{
					"inputs": [],
					"name": "greeting",
					"outputs": [
						{
							"internalType": "string",
							"name": "",
							"type": "string"
						}
					],
					"stateMutability": "view",
					"type": "function"
				},
				{
					"inputs": [],
					"name": "owner",
					"outputs": [
						{
							"internalType": "address",
							"name": "",
							"type": "address"
						}
					],
					"stateMutability": "view",
					"type": "function"
				},
				{
					"inputs": [],
					"name": "user",
					"outputs": [
						{
							"internalType": "bytes",
							"name": "",
							"type": "bytes"
						}
					],
					"stateMutability": "view",
					"type": "function"
				}
			],
			"devdoc": {
				"kind": "dev",
				"methods": {},
				"version": 1
			},
			"evm": {
				"assembly": "    /* \"DataTypes.sol\":60:385  contract DataType {... */\n  mstore(0x40, 0x80)\n    /* \"DataTypes.sol\":122:124  23 */\n  0x17\n    /* \"DataTypes.sol\":101:124  uint256 public age = 23 */\n  0x00\n  sstore\n    /* \"DataTypes.sol\":146:179  bytes public user = \"AbdulMujeeb\" */\n  mload(0x40)\n  dup1\n  0x40\n  add\n  0x40\n  mstore\n  dup1\n  0x0b\n  dup2\n  mstore\n  0x20\n  add\n  0x416264756c4d756a656562000000000000000000000000000000000000000000\n  dup2\n  mstore\n  pop\n  0x01\n  swap1\n  dup2\n  tag_1\n  swap2\n  swap1\n  tag_2\n  jump\t// in\ntag_1:\n  pop\n    /* \"DataTypes.sol\":226:230  true */\n  0x01\n    /* \"DataTypes.sol\":203:230  bool public graduate = true */\n  0x02\n  exp(0x0100, 0x00)\n  dup2\n  sload\n  dup2\n  0xff\n  mul\n  not\n  and\n  swap1\n  dup4\n  iszero\n  iszero\n  mul\n  or\n  swap1\n  sstore\n  pop\n    /* \"DataTypes.sol\":253:292  string public greeting = \"Good Morning\" */\n  mload(0x40)\n  dup1\n  0x40\n  add\n  0x40\n  mstore\n  dup1\n  0x0c\n  dup2\n  mstore\n  0x20\n  add\n  0x476f6f64204d6f726e696e670000000000000000000000000000000000000000\n  dup2\n  mstore\n  pop\n  0x03\n  swap1\n  dup2\n  tag_3\n  swap2\n  swap1\n  tag_4\n  jump\t// in\ntag_3:\n  pop\n    /* \"DataTypes.sol\":339:381  0x5B38Da6a701c568545dCfcB03FcB875f56beddC4 */\n  0x5b38da6a701c568545dcfcb03fcb875f56beddc4\n    /* \"DataTypes.sol\":316:381  address public owner = 0x5B38Da6a701c568545dCfcB03FcB875f56beddC4 */\n  0x04\n  exp(0x0100, 0x00)\n  dup2\n  sload\n  dup2\n  0xffffffffffffffffffffffffffffffffffffffff\n  mul\n  not\n  and\n  swap1\n  dup4\n  0xffffffffffffffffffffffffffffffffffffffff\n  and\n  mul\n  or\n  swap1\n  sstore\n  pop\n    /* \"DataTypes.sol\":60:385  contract DataType {... */\n  callvalue\n  dup1\n  iszero\n  tag_5\n  jumpi\n  0x00\n  dup1\n  revert\ntag_5:\n  pop\n  jump(tag_6)\n    /* \"#utility.yul\":7:106   */\ntag_7:\n    /* \"#utility.yul\":59:65   */\n  0x00\n    /* \"#utility.yul\":93:98   */\n  dup2\n    /* \"#utility.yul\":87:99   */\n  mload\n    /* \"#utility.yul\":77:99   */\n  swap1\n  pop\n    /* \"#utility.yul\":7:106   */\n  swap2\n  swap1\n  pop\n  jump\t// out\n    /* \"#utility.yul\":112:292   */\ntag_8:\n    /* \"#utility.yul\":160:237   */\n  0x4e487b7100000000000000000000000000000000000000000000000000000000\n    /* \"#utility.yul\":157:158   */\n  0x00\n    /* \"#utility.yul\":150:238   */\n  mstore\n    /* \"#utility.yul\":257:261   */\n  0x41\n    /* \"#utility.yul\":254:255   */\n  0x04\n    /* \"#utility.yul\":247:262   */\n  mstore\n    /* \"#utility.yul\":281:285   */\n  0x24\n    /* \"#utility.yul\":278:279   */\n  0x00\n    /* \"#utility.yul\":271:286   */\n  revert\n    /* \"#utility.yul\":298:478   */\ntag_9:\n    /* \"#utility.yul\":346:423   */\n  0x4e487b7100000000000000000000000000000000000000000000000000000000\n    /* \"#utility.yul\":343:344   */\n  0x00\n    /* \"#utility.yul\":336:424   */\n  mstore\n    /* \"#utility.yul\":443:447   */\n  0x22\n    /* \"#utility.yul\":440:441   */\n  0x04\n    /* \"#utility.yul\":433:448   */\n  mstore\n    /* \"#utility.yul\":467:471   */\n  0x24\n    /* \"#utility.yul\":464:465   */\n  0x00\n    /* \"#utility.yul\":457:472   */\n  revert\n    /* \"#utility.yul\":484:804   */\ntag_10:\n    /* \"#utility.yul\":528:534   */\n  0x00\n    /* \"#utility.yul\":565:566   */\n  0x02\n    /* \"#utility.yul\":559:563   */\n  dup3\n    /* \"#utility.yul\":555:567   */\n  div\n    /* \"#utility.yul\":545:567   */\n  swap1\n  pop\n    /* \"#utility.yul\":612:613   */\n  0x01\n    /* \"#utility.yul\":606:610   */\n  dup3\n    /* \"#utility.yul\":602:614   */\n  and\n    /* \"#utility.yul\":633:651   */\n  dup1\n    /* \"#utility.yul\":623:704   */\n  tag_34\n  jumpi\n    /* \"#utility.yul\":689:693   */\n  0x7f\n    /* \"#utility.yul\":681:687   */\n  dup3\n    /* \"#utility.yul\":677:694   */\n  and\n    /* \"#utility.yul\":667:694   */\n  swap2\n  pop\n    /* \"#utility.yul\":623:704   */\ntag_34:\n    /* \"#utility.yul\":751:753   */\n  0x20\n    /* \"#utility.yul\":743:749   */\n  dup3\n    /* \"#utility.yul\":740:754   */\n  lt\n    /* \"#utility.yul\":720:738   */\n  dup2\n    /* \"#utility.yul\":717:755   */\n  sub\n    /* \"#utility.yul\":714:798   */\n  tag_35\n  jumpi\n    /* \"#utility.yul\":770:788   */\n  tag_36\n  tag_9\n  jump\t// in\ntag_36:\n    /* \"#utility.yul\":714:798   */\ntag_35:\n    /* \"#utility.yul\":535:804   */\n  pop\n    /* \"#utility.yul\":484:804   */\n  swap2\n  swap1\n  pop\n  jump\t// out\n    /* \"#utility.yul\":810:950   */\ntag_11:\n    /* \"#utility.yul\":858:862   */\n  0x00\n    /* \"#utility.yul\":881:884   */\n  dup2\n    /* \"#utility.yul\":873:884   */\n  swap1\n  pop\n    /* \"#utility.yul\":904:907   */\n  dup2\n    /* \"#utility.yul\":901:902   */\n  0x00\n    /* \"#utility.yul\":894:908   */\n  mstore\n    /* \"#utility.yul\":938:942   */\n  0x20\n    /* \"#utility.yul\":935:936   */\n  0x00\n    /* \"#utility.yul\":925:943   */\n  keccak256\n    /* \"#utility.yul\":917:943   */\n  swap1\n  pop\n    /* \"#utility.yul\":810:950   */\n  swap2\n  swap1\n  pop\n  jump\t// out\n    /* \"#utility.yul\":956:1049   */\ntag_12:\n    /* \"#utility.yul\":993:999   */\n  0x00\n    /* \"#utility.yul\":1040:1042   */\n  0x20\n    /* \"#utility.yul\":1035:1037   */\n  0x1f\n    /* \"#utility.yul\":1028:1033   */\n  dup4\n    /* \"#utility.yul\":1024:1038   */\n  add\n    /* \"#utility.yul\":1020:1043   */\n  div\n    /* \"#utility.yul\":1010:1043   */\n  swap1\n  pop\n    /* \"#utility.yul\":956:1049   */\n  swap2\n  swap1\n  pop\n  jump\t// out\n    /* \"#utility.yul\":1055:1162   */\ntag_13:\n    /* \"#utility.yul\":1099:1107   */\n  0x00\n    /* \"#utility.yul\":1149:1154   */\n  dup3\n    /* \"#utility.yul\":1143:1147   */\n  dup3\n    /* \"#utility.yul\":1139:1155   */\n  shl\n    /* \"#utility.yul\":1118:1155   */\n  swap1\n  pop\n    /* \"#utility.yul\":1055:1162   */\n  swap3\n  swap2\n  pop\n  pop\n  jump\t// out\n    /* \"#utility.yul\":1168:1561   */\ntag_14:\n    /* \"#utility.yul\":1237:1243   */\n  0x00\n    /* \"#utility.yul\":1287:1288   */\n  0x08\n    /* \"#utility.yul\":1275:1285   */\n  dup4\n    /* \"#utility.yul\":1271:1289   */\n  mul\n    /* \"#utility.yul\":1310:1407   */\n  tag_41\n    /* \"#utility.yul\":1340:1406   */\n  0xffffffffffffffffffffffffffffffffffffffffffffffffffffffffffffffff\n    /* \"#utility.yul\":1329:1338   */\n  dup3\n    /* \"#utility.yul\":1310:1407   */\n  tag_13\n  jump\t// in\ntag_41:\n    /* \"#utility.yul\":1428:1467   */\n  tag_42\n    /* \"#utility.yul\":1458:1466   */\n  dup7\n    /* \"#utility.yul\":1447:1456   */\n  dup4\n    /* \"#utility.yul\":1428:1467   */\n  tag_13\n  jump\t// in\ntag_42:\n    /* \"#utility.yul\":1416:1467   */\n  swap6\n  pop\n    /* \"#utility.yul\":1500:1504   */\n  dup1\n    /* \"#utility.yul\":1496:1505   */\n  not\n    /* \"#utility.yul\":1489:1494   */\n  dup5\n    /* \"#utility.yul\":1485:1506   */\n  and\n    /* \"#utility.yul\":1476:1506   */\n  swap4\n  pop\n    /* \"#utility.yul\":1549:1553   */\n  dup1\n    /* \"#utility.yul\":1539:1547   */\n  dup7\n    /* \"#utility.yul\":1535:1554   */\n  and\n    /* \"#utility.yul\":1528:1533   */\n  dup5\n    /* \"#utility.yul\":1525:1555   */\n  or\n    /* \"#utility.yul\":1515:1555   */\n  swap3\n  pop\n    /* \"#utility.yul\":1244:1561   */\n  pop\n  pop\n    /* \"#utility.yul\":1168:1561   */\n  swap4\n  swap3\n  pop\n  pop\n  pop\n  jump\t// out\n    /* \"#utility.yul\":1567:1644   */\ntag_15:\n    /* \"#utility.yul\":1604:1611   */\n  0x00\n    /* \"#utility.yul\":1633:1638   */\n  dup2\n    /* \"#utility.yul\":1622:1638   */\n  swap1\n  pop\n    /* \"#utility.yul\":1567:1644   */\n  swap2\n  swap1\n  pop\n  jump\t// out\n    /* \"#utility.yul\":1650:1710   */\ntag_16:\n    /* \"#utility.yul\":1678:1681   */\n  0x00\n    /* \"#utility.yul\":1699:1704   */\n  dup2\n    /* \"#utility.yul\":1692:1704   */\n  swap1\n  pop\n    /* \"#utility.yul\":1650:1710   */\n  swap2\n  swap1\n  pop\n  jump\t// out\n    /* \"#utility.yul\":1716:1858   */\ntag_17:\n    /* \"#utility.yul\":1766:1775   */\n  0x00\n    /* \"#utility.yul\":1799:1852   */\n  tag_46\n    /* \"#utility.yul\":1817:1851   */\n  tag_47\n    /* \"#utility.yul\":1826:1850   */\n  tag_48\n    /* \"#utility.yul\":1844:1849   */\n  dup5\n    /* \"#utility.yul\":1826:1850   */\n  tag_15\n  jump\t// in\ntag_48:\n    /* \"#utility.yul\":1817:1851   */\n  tag_16\n  jump\t// in\ntag_47:\n    /* \"#utility.yul\":1799:1852   */\n  tag_15\n  jump\t// in\ntag_46:\n    /* \"#utility.yul\":1786:1852   */\n  swap1\n  pop\n    /* \"#utility.yul\":1716:1858   */\n  swap2\n  swap1\n  pop\n  jump\t// out\n    /* \"#utility.yul\":1864:1939   */\ntag_18:\n    /* \"#utility.yul\":1907:1910   */\n  0x00\n    /* \"#utility.yul\":1928:1933   */\n  dup2\n    /* \"#utility.yul\":1921:1933   */\n  swap1\n  pop\n    /* \"#utility.yul\":1864:1939   */\n  swap2\n  swap1\n  pop\n  jump\t// out\n    /* \"#utility.yul\":1945:2214   */\ntag_19:\n    /* \"#utility.yul\":2055:2094   */\n  tag_51\n    /* \"#utility.yul\":2086:2093   */\n  dup4\n    /* \"#utility.yul\":2055:2094   */\n  tag_17\n  jump\t// in\ntag_51:\n    /* \"#utility.yul\":2116:2207   */\n  tag_52\n    /* \"#utility.yul\":2165:2206   */\n  tag_53\n    /* \"#utility.yul\":2189:2205   */\n  dup3\n    /* \"#utility.yul\":2165:2206   */\n  tag_18\n  jump\t// in\ntag_53:\n    /* \"#utility.yul\":2157:2163   */\n  dup5\n    /* \"#utility.yul\":2150:2154   */\n  dup5\n    /* \"#utility.yul\":2144:2155   */\n  sload\n    /* \"#utility.yul\":2116:2207   */\n  tag_14\n  jump\t// in\ntag_52:\n    /* \"#utility.yul\":2110:2114   */\n  dup3\n    /* \"#utility.yul\":2103:2208   */\n  sstore\n    /* \"#utility.yul\":2021:2214   */\n  pop\n    /* \"#utility.yul\":1945:2214   */\n  pop\n  pop\n  pop\n  jump\t// out\n    /* \"#utility.yul\":2220:2293   */\ntag_20:\n    /* \"#utility.yul\":2265:2268   */\n  0x00\n    /* \"#utility.yul\":2220:2293   */\n  swap1\n  jump\t// out\n    /* \"#utility.yul\":2299:2488   */\ntag_21:\n    /* \"#utility.yul\":2376:2408   */\n  tag_56\n  tag_20\n  jump\t// in\ntag_56:\n    /* \"#utility.yul\":2417:2482   */\n  tag_57\n    /* \"#utility.yul\":2475:2481   */\n  dup2\n    /* \"#utility.yul\":2467:2473   */\n  dup5\n    /* \"#utility.yul\":2461:2465   */\n  dup5\n    /* \"#utility.yul\":2417:2482   */\n  tag_19\n  jump\t// in\ntag_57:\n    /* \"#utility.yul\":2352:2488   */\n  pop\n    /* \"#utility.yul\":2299:2488   */\n  pop\n  pop\n  jump\t// out\n    /* \"#utility.yul\":2494:2680   */\ntag_22:\n    /* \"#utility.yul\":2554:2674   */\ntag_59:\n    /* \"#utility.yul\":2571:2574   */\n  dup2\n    /* \"#utility.yul\":2564:2569   */\n  dup2\n    /* \"#utility.yul\":2561:2575   */\n  lt\n    /* \"#utility.yul\":2554:2674   */\n  iszero\n  tag_61\n  jumpi\n    /* \"#utility.yul\":2625:2664   */\n  tag_62\n    /* \"#utility.yul\":2662:2663   */\n  0x00\n    /* \"#utility.yul\":2655:2660   */\n  dup3\n    /* \"#utility.yul\":2625:2664   */\n  tag_21\n  jump\t// in\ntag_62:\n    /* \"#utility.yul\":2598:2599   */\n  0x01\n    /* \"#utility.yul\":2591:2596   */\n  dup2\n    /* \"#utility.yul\":2587:2600   */\n  add\n    /* \"#utility.yul\":2578:2600   */\n  swap1\n  pop\n    /* \"#utility.yul\":2554:2674   */\n  jump(tag_59)\ntag_61:\n    /* \"#utility.yul\":2494:2680   */\n  pop\n  pop\n  jump\t// out\n    /* \"#utility.yul\":2686:3227   */\ntag_23:\n    /* \"#utility.yul\":2786:2788   */\n  0x1f\n    /* \"#utility.yul\":2781:2784   */\n  dup3\n    /* \"#utility.yul\":2778:2789   */\n  gt\n    /* \"#utility.yul\":2775:3220   */\n  iszero\n  tag_64\n  jumpi\n    /* \"#utility.yul\":2820:2857   */\n  tag_65\n    /* \"#utility.yul\":2851:2856   */\n  dup2\n    /* \"#utility.yul\":2820:2857   */\n  tag_11\n  jump\t// in\ntag_65:\n    /* \"#utility.yul\":2903:2932   */\n  tag_66\n    /* \"#utility.yul\":2921:2931   */\n  dup5\n    /* \"#utility.yul\":2903:2932   */\n  tag_12\n  jump\t// in\ntag_66:\n    /* \"#utility.yul\":2893:2901   */\n  dup2\n    /* \"#utility.yul\":2889:2933   */\n  add\n    /* \"#utility.yul\":3086:3088   */\n  0x20\n    /* \"#utility.yul\":3074:3084   */\n  dup6\n    /* \"#utility.yul\":3071:3089   */\n  lt\n    /* \"#utility.yul\":3068:3117   */\n  iszero\n  tag_67\n  jumpi\n    /* \"#utility.yul\":3107:3115   */\n  dup2\n    /* \"#utility.yul\":3092:3115   */\n  swap1\n  pop\n    /* \"#utility.yul\":3068:3117   */\ntag_67:\n    /* \"#utility.yul\":3130:3210   */\n  tag_68\n    /* \"#utility.yul\":3186:3208   */\n  tag_69\n    /* \"#utility.yul\":3204:3207   */\n  dup6\n    /* \"#utility.yul\":3186:3208   */\n  tag_12\n  jump\t// in\ntag_69:\n    /* \"#utility.yul\":3176:3184   */\n  dup4\n    /* \"#utility.yul\":3172:3209   */\n  add\n    /* \"#utility.yul\":3159:3170   */\n  dup3\n    /* \"#utility.yul\":3130:3210   */\n  tag_22\n  jump\t// in\ntag_68:\n    /* \"#utility.yul\":2790:3220   */\n  pop\n  pop\n    /* \"#utility.yul\":2775:3220   */\ntag_64:\n    /* \"#utility.yul\":2686:3227   */\n  pop\n  pop\n  pop\n  jump\t// out\n    /* \"#utility.yul\":3233:3350   */\ntag_24:\n    /* \"#utility.yul\":3287:3295   */\n  0x00\n    /* \"#utility.yul\":3337:3342   */\n  dup3\n    /* \"#utility.yul\":3331:3335   */\n  dup3\n    /* \"#utility.yul\":3327:3343   */\n  shr\n    /* \"#utility.yul\":3306:3343   */\n  swap1\n  pop\n    /* \"#utility.yul\":3233:3350   */\n  swap3\n  swap2\n  pop\n  pop\n  jump\t// out\n    /* \"#utility.yul\":3356:3525   */\ntag_25:\n    /* \"#utility.yul\":3400:3406   */\n  0x00\n    /* \"#utility.yul\":3433:3484   */\n  tag_72\n    /* \"#utility.yul\":3481:3482   */\n  0x00\n    /* \"#utility.yul\":3477:3483   */\n  not\n    /* \"#utility.yul\":3469:3474   */\n  dup5\n    /* \"#utility.yul\":3466:3467   */\n  0x08\n    /* \"#utility.yul\":3462:3475   */\n  mul\n    /* \"#utility.yul\":3433:3484   */\n  tag_24\n  jump\t// in\ntag_72:\n    /* \"#utility.yul\":3429:3485   */\n  not\n    /* \"#utility.yul\":3514:3518   */\n  dup1\n    /* \"#utility.yul\":3508:3512   */\n  dup4\n    /* \"#utility.yul\":3504:3519   */\n  and\n    /* \"#utility.yul\":3494:3519   */\n  swap2\n  pop\n    /* \"#utility.yul\":3407:3525   */\n  pop\n    /* \"#utility.yul\":3356:3525   */\n  swap3\n  swap2\n  pop\n  pop\n  jump\t// out\n    /* \"#utility.yul\":3530:3825   */\ntag_26:\n    /* \"#utility.yul\":3606:3610   */\n  0x00\n    /* \"#utility.yul\":3752:3781   */\n  tag_74\n    /* \"#utility.yul\":3777:3780   */\n  dup4\n    /* \"#utility.yul\":3771:3775   */\n  dup4\n    /* \"#utility.yul\":3752:3781   */\n  tag_25\n  jump\t// in\ntag_74:\n    /* \"#utility.yul\":3744:3781   */\n  swap2\n  pop\n    /* \"#utility.yul\":3814:3817   */\n  dup3\n    /* \"#utility.yul\":3811:3812   */\n  0x02\n    /* \"#utility.yul\":3807:3818   */\n  mul\n    /* \"#utility.yul\":3801:3805   */\n  dup3\n    /* \"#utility.yul\":3798:3819   */\n  or\n    /* \"#utility.yul\":3790:3819   */\n  swap1\n  pop\n    /* \"#utility.yul\":3530:3825   */\n  swap3\n  swap2\n  pop\n  pop\n  jump\t// out\n    /* \"#utility.yul\":3830:5222   */\ntag_2:\n    /* \"#utility.yul\":3946:3983   */\n  tag_76\n    /* \"#utility.yul\":3979:3982   */\n  dup3\n    /* \"#utility.yul\":3946:3983   */\n  tag_7\n  jump\t// in\ntag_76:\n    /* \"#utility.yul\":4048:4066   */\n  0xffffffffffffffff\n    /* \"#utility.yul\":4040:4046   */\n  dup2\n    /* \"#utility.yul\":4037:4067   */\n  gt\n    /* \"#utility.yul\":4034:4090   */\n  iszero\n  tag_77\n  jumpi\n    /* \"#utility.yul\":4070:4088   */\n  tag_78\n  tag_8\n  jump\t// in\ntag_78:\n    /* \"#utility.yul\":4034:4090   */\ntag_77:\n    /* \"#utility.yul\":4114:4152   */\n  tag_79\n    /* \"#utility.yul\":4146:4150   */\n  dup3\n    /* \"#utility.yul\":4140:4151   */\n  sload\n    /* \"#utility.yul\":4114:4152   */\n  tag_10\n  jump\t// in\ntag_79:\n    /* \"#utility.yul\":4199:4265   */\n  tag_80\n    /* \"#utility.yul\":4258:4264   */\n  dup3\n    /* \"#utility.yul\":4250:4256   */\n  dup3\n    /* \"#utility.yul\":4244:4248   */\n  dup6\n    /* \"#utility.yul\":4199:4265   */\n  tag_23\n  jump\t// in\ntag_80:\n    /* \"#utility.yul\":4292:4293   */\n  0x00\n    /* \"#utility.yul\":4316:4320   */\n  0x20\n    /* \"#utility.yul\":4303:4320   */\n  swap1\n  pop\n    /* \"#utility.yul\":4348:4350   */\n  0x1f\n    /* \"#utility.yul\":4340:4346   */\n  dup4\n    /* \"#utility.yul\":4337:4351   */\n  gt\n    /* \"#utility.yul\":4365:4366   */\n  0x01\n    /* \"#utility.yul\":4360:4977   */\n  dup2\n  eq\n  tag_82\n  jumpi\n    /* \"#utility.yul\":5021:5022   */\n  0x00\n    /* \"#utility.yul\":5038:5044   */\n  dup5\n    /* \"#utility.yul\":5035:5112   */\n  iszero\n  tag_83\n  jumpi\n    /* \"#utility.yul\":5087:5096   */\n  dup3\n    /* \"#utility.yul\":5082:5085   */\n  dup8\n    /* \"#utility.yul\":5078:5097   */\n  add\n    /* \"#utility.yul\":5072:5098   */\n  mload\n    /* \"#utility.yul\":5063:5098   */\n  swap1\n  pop\n    /* \"#utility.yul\":5035:5112   */\ntag_83:\n    /* \"#utility.yul\":5138:5205   */\n  tag_84\n    /* \"#utility.yul\":5198:5204   */\n  dup6\n    /* \"#utility.yul\":5191:5196   */\n  dup3\n    /* \"#utility.yul\":5138:5205   */\n  tag_26\n  jump\t// in\ntag_84:\n    /* \"#utility.yul\":5132:5136   */\n  dup7\n    /* \"#utility.yul\":5125:5206   */\n  sstore\n    /* \"#utility.yul\":4994:5216   */\n  pop\n    /* \"#utility.yul\":4330:5216   */\n  jump(tag_81)\n    /* \"#utility.yul\":4360:4977   */\ntag_82:\n    /* \"#utility.yul\":4412:4416   */\n  0x1f\n    /* \"#utility.yul\":4408:4417   */\n  not\n    /* \"#utility.yul\":4400:4406   */\n  dup5\n    /* \"#utility.yul\":4396:4418   */\n  and\n    /* \"#utility.yul\":4446:4482   */\n  tag_85\n    /* \"#utility.yul\":4477:4481   */\n  dup7\n    /* \"#utility.yul\":4446:4482   */\n  tag_11\n  jump\t// in\ntag_85:\n    /* \"#utility.yul\":4504:4505   */\n  0x00\n    /* \"#utility.yul\":4518:4726   */\ntag_86:\n    /* \"#utility.yul\":4532:4539   */\n  dup3\n    /* \"#utility.yul\":4529:4530   */\n  dup2\n    /* \"#utility.yul\":4526:4540   */\n  lt\n    /* \"#utility.yul\":4518:4726   */\n  iszero\n  tag_88\n  jumpi\n    /* \"#utility.yul\":4611:4620   */\n  dup5\n    /* \"#utility.yul\":4606:4609   */\n  dup10\n    /* \"#utility.yul\":4602:4621   */\n  add\n    /* \"#utility.yul\":4596:4622   */\n  mload\n    /* \"#utility.yul\":4588:4594   */\n  dup3\n    /* \"#utility.yul\":4581:4623   */\n  sstore\n    /* \"#utility.yul\":4662:4663   */\n  0x01\n    /* \"#utility.yul\":4654:4660   */\n  dup3\n    /* \"#utility.yul\":4650:4664   */\n  add\n    /* \"#utility.yul\":4640:4664   */\n  swap2\n  pop\n    /* \"#utility.yul\":4709:4711   */\n  0x20\n    /* \"#utility.yul\":4698:4707   */\n  dup6\n    /* \"#utility.yul\":4694:4712   */\n  add\n    /* \"#utility.yul\":4681:4712   */\n  swap5\n  pop\n    /* \"#utility.yul\":4555:4559   */\n  0x20\n    /* \"#utility.yul\":4552:4553   */\n  dup2\n    /* \"#utility.yul\":4548:4560   */\n  add\n    /* \"#utility.yul\":4543:4560   */\n  swap1\n  pop\n    /* \"#utility.yul\":4518:4726   */\n  jump(tag_86)\ntag_88:\n    /* \"#utility.yul\":4754:4760   */\n  dup7\n    /* \"#utility.yul\":4745:4752   */\n  dup4\n    /* \"#utility.yul\":4742:4761   */\n  lt\n    /* \"#utility.yul\":4739:4918   */\n  iszero\n  tag_89\n  jumpi\n    /* \"#utility.yul\":4812:4821   */\n  dup5\n    /* \"#utility.yul\":4807:4810   */\n  dup10\n    /* \"#utility.yul\":4803:4822   */\n  add\n    /* \"#utility.yul\":4797:4823   */\n  mload\n    /* \"#utility.yul\":4855:4903   */\n  tag_90\n    /* \"#utility.yul\":4897:4901   */\n  0x1f\n    /* \"#utility.yul\":4889:4895   */\n  dup10\n    /* \"#utility.yul\":4885:4902   */\n  and\n    /* \"#utility.yul\":4874:4883   */\n  dup3\n    /* \"#utility.yul\":4855:4903   */\n  tag_25\n  jump\t// in\ntag_90:\n    /* \"#utility.yul\":4847:4853   */\n  dup4\n    /* \"#utility.yul\":4840:4904   */\n  sstore\n    /* \"#utility.yul\":4762:4918   */\n  pop\n    /* \"#utility.yul\":4739:4918   */\ntag_89:\n    /* \"#utility.yul\":4964:4965   */\n  0x01\n    /* \"#utility.yul\":4960:4961   */\n  0x02\n    /* \"#utility.yul\":4952:4958   */\n  dup9\n    /* \"#utility.yul\":4948:4962   */\n  mul\n    /* \"#utility.yul\":4944:4966   */\n  add\n    /* \"#utility.yul\":4938:4942   */\n  dup9\n    /* \"#utility.yul\":4931:4967   */\n  sstore\n    /* \"#utility.yul\":4367:4977   */\n  pop\n  pop\n  pop\n    /* \"#utility.yul\":4330:5216   */\ntag_81:\n  pop\n    /* \"#utility.yul\":3921:5222   */\n  pop\n  pop\n  pop\n    /* \"#utility.yul\":3830:5222   */\n  pop\n  pop\n  jump\t// out\n    /* \"#utility.yul\":5228:5369   */\ntag_27:\n    /* \"#utility.yul\":5277:5281   */\n  0x00\n    /* \"#utility.yul\":5300:5303   */\n  dup2\n    /* \"#utility.yul\":5292:5303   */\n  swap1\n  pop\n    /* \"#utility.yul\":5323:5326   */\n  dup2\n    /* \"#utility.yul\":5320:5321   */\n  0x00\n    /* \"#utility.yul\":5313:5327   */\n  mstore\n    /* \"#utility.yul\":5357:5361   */\n  0x20\n    /* \"#utility.yul\":5354:5355   */\n  0x00\n    /* \"#utility.yul\":5344:5362   */\n  keccak256\n    /* \"#utility.yul\":5336:5362   */\n  swap1\n  pop\n    /* \"#utility.yul\":5228:5369   */\n  swap2\n  swap1\n  pop\n  jump\t// out\n    /* \"#utility.yul\":5375:5918   */\ntag_28:\n    /* \"#utility.yul\":5476:5478   */\n  0x1f\n    /* \"#utility.yul\":5471:5474   */\n  dup3\n    /* \"#utility.yul\":5468:5479   */\n  gt\n    /* \"#utility.yul\":5465:5911   */\n  iszero\n  tag_93\n  jumpi\n    /* \"#utility.yul\":5510:5548   */\n  tag_94\n    /* \"#utility.yul\":5542:5547   */\n  dup2\n    /* \"#utility.yul\":5510:5548   */\n  tag_27\n  jump\t// in\ntag_94:\n    /* \"#utility.yul\":5594:5623   */\n  tag_95\n    /* \"#utility.yul\":5612:5622   */\n  dup5\n    /* \"#utility.yul\":5594:5623   */\n  tag_12\n  jump\t// in\ntag_95:\n    /* \"#utility.yul\":5584:5592   */\n  dup2\n    /* \"#utility.yul\":5580:5624   */\n  add\n    /* \"#utility.yul\":5777:5779   */\n  0x20\n    /* \"#utility.yul\":5765:5775   */\n  dup6\n    /* \"#utility.yul\":5762:5780   */\n  lt\n    /* \"#utility.yul\":5759:5808   */\n  iszero\n  tag_96\n  jumpi\n    /* \"#utility.yul\":5798:5806   */\n  dup2\n    /* \"#utility.yul\":5783:5806   */\n  swap1\n  pop\n    /* \"#utility.yul\":5759:5808   */\ntag_96:\n    /* \"#utility.yul\":5821:5901   */\n  tag_97\n    /* \"#utility.yul\":5877:5899   */\n  tag_98\n    /* \"#utility.yul\":5895:5898   */\n  dup6\n    /* \"#utility.yul\":5877:5899   */\n  tag_12\n  jump\t// in\ntag_98:\n    /* \"#utility.yul\":5867:5875   */\n  dup4\n    /* \"#utility.yul\":5863:5900   */\n  add\n    /* \"#utility.yul\":5850:5861   */\n  dup3\n    /* \"#utility.yul\":5821:5901   */\n  tag_22\n  jump\t// in\ntag_97:\n    /* \"#utility.yul\":5480:5911   */\n  pop\n  pop\n    /* \"#utility.yul\":5465:5911   */\ntag_93:\n    /* \"#utility.yul\":5375:5918   */\n  pop\n  pop\n  pop\n  jump\t// out\n    /* \"#utility.yul\":5924:7319   */\ntag_4:\n    /* \"#utility.yul\":6041:6078   */\n  tag_100\n    /* \"#utility.yul\":6074:6077   */\n  dup3\n    /* \"#utility.yul\":6041:6078   */\n  tag_7\n  jump\t// in\ntag_100:\n    /* \"#utility.yul\":6143:6161   */\n  0xffffffffffffffff\n    /* \"#utility.yul\":6135:6141   */\n  dup2\n    /* \"#utility.yul\":6132:6162   */\n  gt\n    /* \"#utility.yul\":6129:6185   */\n  iszero\n  tag_101\n  jumpi\n    /* \"#utility.yul\":6165:6183   */\n  tag_102\n  tag_8\n  jump\t// in\ntag_102:\n    /* \"#utility.yul\":6129:6185   */\ntag_101:\n    /* \"#utility.yul\":6209:6247   */\n  tag_103\n    /* \"#utility.yul\":6241:6245   */\n  dup3\n    /* \"#utility.yul\":6235:6246   */\n  sload\n    /* \"#utility.yul\":6209:6247   */\n  tag_10\n  jump\t// in\ntag_103:\n    /* \"#utility.yul\":6294:6361   */\n  tag_104\n    /* \"#utility.yul\":6354:6360   */\n  dup3\n    /* \"#utility.yul\":6346:6352   */\n  dup3\n    /* \"#utility.yul\":6340:6344   */\n  dup6\n    /* \"#utility.yul\":6294:6361   */\n  tag_28\n  jump\t// in\ntag_104:\n    /* \"#utility.yul\":6388:6389   */\n  0x00\n    /* \"#utility.yul\":6412:6416   */\n  0x20\n    /* \"#utility.yul\":6399:6416   */\n  swap1\n  pop\n    /* \"#utility.yul\":6444:6446   */\n  0x1f\n    /* \"#utility.yul\":6436:6442   */\n  dup4\n    /* \"#utility.yul\":6433:6447   */\n  gt\n    /* \"#utility.yul\":6461:6462   */\n  0x01\n    /* \"#utility.yul\":6456:7074   */\n  dup2\n  eq\n  tag_106\n  jumpi\n    /* \"#utility.yul\":7118:7119   */\n  0x00\n    /* \"#utility.yul\":7135:7141   */\n  dup5\n    /* \"#utility.yul\":7132:7209   */\n  iszero\n  tag_107\n  jumpi\n    /* \"#utility.yul\":7184:7193   */\n  dup3\n    /* \"#utility.yul\":7179:7182   */\n  dup8\n    /* \"#utility.yul\":7175:7194   */\n  add\n    /* \"#utility.yul\":7169:7195   */\n  mload\n    /* \"#utility.yul\":7160:7195   */\n  swap1\n  pop\n    /* \"#utility.yul\":7132:7209   */\ntag_107:\n    /* \"#utility.yul\":7235:7302   */\n  tag_108\n    /* \"#utility.yul\":7295:7301   */\n  dup6\n    /* \"#utility.yul\":7288:7293   */\n  dup3\n    /* \"#utility.yul\":7235:7302   */\n  tag_26\n  jump\t// in\ntag_108:\n    /* \"#utility.yul\":7229:7233   */\n  dup7\n    /* \"#utility.yul\":7222:7303   */\n  sstore\n    /* \"#utility.yul\":7091:7313   */\n  pop\n    /* \"#utility.yul\":6426:7313   */\n  jump(tag_105)\n    /* \"#utility.yul\":6456:7074   */\ntag_106:\n    /* \"#utility.yul\":6508:6512   */\n  0x1f\n    /* \"#utility.yul\":6504:6513   */\n  not\n    /* \"#utility.yul\":6496:6502   */\n  dup5\n    /* \"#utility.yul\":6492:6514   */\n  and\n    /* \"#utility.yul\":6542:6579   */\n  tag_109\n    /* \"#utility.yul\":6574:6578   */\n  dup7\n    /* \"#utility.yul\":6542:6579   */\n  tag_27\n  jump\t// in\ntag_109:\n    /* \"#utility.yul\":6601:6602   */\n  0x00\n    /* \"#utility.yul\":6615:6823   */\ntag_110:\n    /* \"#utility.yul\":6629:6636   */\n  dup3\n    /* \"#utility.yul\":6626:6627   */\n  dup2\n    /* \"#utility.yul\":6623:6637   */\n  lt\n    /* \"#utility.yul\":6615:6823   */\n  iszero\n  tag_112\n  jumpi\n    /* \"#utility.yul\":6708:6717   */\n  dup5\n    /* \"#utility.yul\":6703:6706   */\n  dup10\n    /* \"#utility.yul\":6699:6718   */\n  add\n    /* \"#utility.yul\":6693:6719   */\n  mload\n    /* \"#utility.yul\":6685:6691   */\n  dup3\n    /* \"#utility.yul\":6678:6720   */\n  sstore\n    /* \"#utility.yul\":6759:6760   */\n  0x01\n    /* \"#utility.yul\":6751:6757   */\n  dup3\n    /* \"#utility.yul\":6747:6761   */\n  add\n    /* \"#utility.yul\":6737:6761   */\n  swap2\n  pop\n    /* \"#utility.yul\":6806:6808   */\n  0x20\n    /* \"#utility.yul\":6795:6804   */\n  dup6\n    /* \"#utility.yul\":6791:6809   */\n  add\n    /* \"#utility.yul\":6778:6809   */\n  swap5\n  pop\n    /* \"#utility.yul\":6652:6656   */\n  0x20\n    /* \"#utility.yul\":6649:6650   */\n  dup2\n    /* \"#utility.yul\":6645:6657   */\n  add\n    /* \"#utility.yul\":6640:6657   */\n  swap1\n  pop\n    /* \"#utility.yul\":6615:6823   */\n  jump(tag_110)\ntag_112:\n    /* \"#utility.yul\":6851:6857   */\n  dup7\n    /* \"#utility.yul\":6842:6849   */\n  dup4\n    /* \"#utility.yul\":6839:6858   */\n  lt\n    /* \"#utility.yul\":6836:7015   */\n  iszero\n  tag_113\n  jumpi\n    /* \"#utility.yul\":6909:6918   */\n  dup5\n    /* \"#utility.yul\":6904:6907   */\n  dup10\n    /* \"#utility.yul\":6900:6919   */\n  add\n    /* \"#utility.yul\":6894:6920   */\n  mload\n    /* \"#utility.yul\":6952:7000   */\n  tag_114\n    /* \"#utility.yul\":6994:6998   */\n  0x1f\n    /* \"#utility.yul\":6986:6992   */\n  dup10\n    /* \"#utility.yul\":6982:6999   */\n  and\n    /* \"#utility.yul\":6971:6980   */\n  dup3\n    /* \"#utility.yul\":6952:7000   */\n  tag_25\n  jump\t// in\ntag_114:\n    /* \"#utility.yul\":6944:6950   */\n  dup4\n    /* \"#utility.yul\":6937:7001   */\n  sstore\n    /* \"#utility.yul\":6859:7015   */\n  pop\n    /* \"#utility.yul\":6836:7015   */\ntag_113:\n    /* \"#utility.yul\":7061:7062   */\n  0x01\n    /* \"#utility.yul\":7057:7058   */\n  0x02\n    /* \"#utility.yul\":7049:7055   */\n  dup9\n    /* \"#utility.yul\":7045:7059   */\n  mul\n    /* \"#utility.yul\":7041:7063   */\n  add\n    /* \"#utility.yul\":7035:7039   */\n  dup9\n    /* \"#utility.yul\":7028:7064   */\n  sstore\n    /* \"#utility.yul\":6463:7074   */\n  pop\n  pop\n  pop\n    /* \"#utility.yul\":6426:7313   */\ntag_105:\n  pop\n    /* \"#utility.yul\":6016:7319   */\n  pop\n  pop\n  pop\n    /* \"#utility.yul\":5924:7319   */\n  pop\n  pop\n  jump\t// out\n    /* \"DataTypes.sol\":60:385  contract DataType {... */\ntag_6:\n  dataSize(sub_0)\n  dup1\n  dataOffset(sub_0)\n  0x00\n  codecopy\n  0x00\n  return\nstop\n\nsub_0: assembly {\n        /* \"DataTypes.sol\":60:385  contract DataType {... */\n      mstore(0x40, 0x80)\n      callvalue\n      dup1\n      iszero\n      tag_1\n      jumpi\n      0x00\n      dup1\n      revert\n    tag_1:\n      pop\n      jumpi(tag_2, lt(calldatasize, 0x04))\n      shr(0xe0, calldataload(0x00))\n      dup1\n      0x262a9dff\n      eq\n      tag_3\n      jumpi\n      dup1\n      0x4f8632ba\n      eq\n      tag_4\n      jumpi\n      dup1\n      0x8da5cb5b\n      eq\n      tag_5\n      jumpi\n      dup1\n      0xd3618cca\n      eq\n      tag_6\n      jumpi\n      dup1\n      0xef690cc0\n      eq\n      tag_7\n      jumpi\n    tag_2:\n      0x00\n      dup1\n      revert\n        /* \"DataTypes.sol\":101:124  uint256 public age = 23 */\n    tag_3:\n      tag_8\n      tag_9\n      jump\t// in\n    tag_8:\n      mload(0x40)\n      tag_10\n      swap2\n      swap1\n      tag_11\n      jump\t// in\n    tag_10:\n      mload(0x40)\n      dup1\n      swap2\n      sub\n      swap1\n      return\n        /* \"DataTypes.sol\":146:179  bytes public user = \"AbdulMujeeb\" */\n    tag_4:\n      tag_12\n      tag_13\n      jump\t// in\n    tag_12:\n      mload(0x40)\n      tag_14\n      swap2\n      swap1\n      tag_15\n      jump\t// in\n    tag_14:\n      mload(0x40)\n      dup1\n      swap2\n      sub\n      swap1\n      return\n        /* \"DataTypes.sol\":316:381  address public owner = 0x5B38Da6a701c568545dCfcB03FcB875f56beddC4 */\n    tag_5:\n      tag_16\n      tag_17\n      jump\t// in\n    tag_16:\n      mload(0x40)\n      tag_18\n      swap2\n      swap1\n      tag_19\n      jump\t// in\n    tag_18:\n      mload(0x40)\n      dup1\n      swap2\n      sub\n      swap1\n      return\n        /* \"DataTypes.sol\":203:230  bool public graduate = true */\n    tag_6:\n      tag_20\n      tag_21\n      jump\t// in\n    tag_20:\n      mload(0x40)\n      tag_22\n      swap2\n      swap1\n      tag_23\n      jump\t// in\n    tag_22:\n      mload(0x40)\n      dup1\n      swap2\n      sub\n      swap1\n      return\n        /* \"DataTypes.sol\":253:292  string public greeting = \"Good Morning\" */\n    tag_7:\n      tag_24\n      tag_25\n      jump\t// in\n    tag_24:\n      mload(0x40)\n      tag_26\n      swap2\n      swap1\n      tag_27\n      jump\t// in\n    tag_26:\n      mload(0x40)\n      dup1\n      swap2\n      sub\n      swap1\n      return\n        /* \"DataTypes.sol\":101:124  uint256 public age = 23 */\n    tag_9:\n      sload(0x00)\n      dup2\n      jump\t// out\n        /* \"DataTypes.sol\":146:179  bytes public user = \"AbdulMujeeb\" */\n    tag_13:\n      0x01\n      dup1\n      sload\n      tag_28\n      swap1\n      tag_29\n      jump\t// in\n    tag_28:\n      dup1\n      0x1f\n      add\n      0x20\n      dup1\n      swap2\n      div\n      mul\n      0x20\n      add\n      mload(0x40)\n      swap1\n      dup2\n      add\n      0x40\n      mstore\n      dup1\n      swap3\n      swap2\n      swap1\n      dup2\n      dup2\n      mstore\n      0x20\n      add\n      dup3\n      dup1\n      sload\n      tag_30\n      swap1\n      tag_29\n      jump\t// in\n    tag_30:\n      dup1\n      iszero\n      tag_31\n      jumpi\n      dup1\n      0x1f\n      lt\n      tag_32\n      jumpi\n      0x0100\n      dup1\n      dup4\n      sload\n      div\n      mul\n      dup4\n      mstore\n      swap2\n      0x20\n      add\n      swap2\n      jump(tag_31)\n    tag_32:\n      dup3\n      add\n      swap2\n      swap1\n      0x00\n      mstore\n      keccak256(0x00, 0x20)\n      swap1\n    tag_33:\n      dup2\n      sload\n      dup2\n      mstore\n      swap1\n      0x01\n      add\n      swap1\n      0x20\n      add\n      dup1\n      dup4\n      gt\n      tag_33\n      jumpi\n      dup3\n      swap1\n      sub\n      0x1f\n      and\n      dup3\n      add\n      swap2\n    tag_31:\n      pop\n      pop\n      pop\n      pop\n      pop\n      dup2\n      jump\t// out\n        /* \"DataTypes.sol\":316:381  address public owner = 0x5B38Da6a701c568545dCfcB03FcB875f56beddC4 */\n    tag_17:\n      0x04\n      0x00\n      swap1\n      sload\n      swap1\n      0x0100\n      exp\n      swap1\n      div\n      0xffffffffffffffffffffffffffffffffffffffff\n      and\n      dup2\n      jump\t// out\n        /* \"DataTypes.sol\":203:230  bool public graduate = true */\n    tag_21:\n      0x02\n      0x00\n      swap1\n      sload\n      swap1\n      0x0100\n      exp\n      swap1\n      div\n      0xff\n      and\n      dup2\n      jump\t// out\n        /* \"DataTypes.sol\":253:292  string public greeting = \"Good Morning\" */\n    tag_25:\n      0x03\n      dup1\n      sload\n      tag_34\n      swap1\n      tag_29\n      jump\t// in\n    tag_34:\n      dup1\n      0x1f\n      add\n      0x20\n      dup1\n      swap2\n      div\n      mul\n      0x20\n      add\n      mload(0x40)\n      swap1\n      dup2\n      add\n      0x40\n      mstore\n      dup1\n      swap3\n      swap2\n      swap1\n      dup2\n      dup2\n      mstore\n      0x20\n      add\n      dup3\n      dup1\n      sload\n      tag_35\n      swap1\n      tag_29\n      jump\t// in\n    tag_35:\n      dup1\n      iszero\n      tag_36\n      jumpi\n      dup1\n      0x1f\n      lt\n      tag_37\n      jumpi\n      0x0100\n      dup1\n      dup4\n      sload\n      div\n      mul\n      dup4\n      mstore\n      swap2\n      0x20\n      add\n      swap2\n      jump(tag_36)\n    tag_37:\n      dup3\n      add\n      swap2\n      swap1\n      0x00\n      mstore\n      keccak256(0x00, 0x20)\n      swap1\n    tag_38:\n      dup2\n      sload\n      dup2\n      mstore\n      swap1\n      0x01\n      add\n      swap1\n      0x20\n      add\n      dup1\n      dup4\n      gt\n      tag_38\n      jumpi\n      dup3\n      swap1\n      sub\n      0x1f\n      and\n      dup3\n      add\n      swap2\n    tag_36:\n      pop\n      pop\n      pop\n      pop\n      pop\n      dup2\n      jump\t// out\n        /* \"#utility.yul\":7:84   */\n    tag_39:\n        /* \"#utility.yul\":44:51   */\n      0x00\n        /* \"#utility.yul\":73:78   */\n      dup2\n        /* \"#utility.yul\":62:78   */\n      swap1\n      pop\n        /* \"#utility.yul\":7:84   */\n      swap2\n      swap1\n      pop\n      jump\t// out\n        /* \"#utility.yul\":90:208   */\n    tag_40:\n        /* \"#utility.yul\":177:201   */\n      tag_58\n        /* \"#utility.yul\":195:200   */\n      dup2\n        /* \"#utility.yul\":177:201   */\n      tag_39\n      jump\t// in\n    tag_58:\n        /* \"#utility.yul\":172:175   */\n      dup3\n        /* \"#utility.yul\":165:202   */\n      mstore\n        /* \"#utility.yul\":90:208   */\n      pop\n      pop\n      jump\t// out\n        /* \"#utility.yul\":214:436   */\n    tag_11:\n        /* \"#utility.yul\":307:311   */\n      0x00\n        /* \"#utility.yul\":345:347   */\n      0x20\n        /* \"#utility.yul\":334:343   */\n      dup3\n        /* \"#utility.yul\":330:348   */\n      add\n        /* \"#utility.yul\":322:348   */\n      swap1\n      pop\n        /* \"#utility.yul\":358:429   */\n      tag_60\n        /* \"#utility.yul\":426:427   */\n      0x00\n        /* \"#utility.yul\":415:424   */\n      dup4\n        /* \"#utility.yul\":411:428   */\n      add\n        /* \"#utility.yul\":402:408   */\n      dup5\n        /* \"#utility.yul\":358:429   */\n      tag_40\n      jump\t// in\n    tag_60:\n        /* \"#utility.yul\":214:436   */\n      swap3\n      swap2\n      pop\n      pop\n      jump\t// out\n        /* \"#utility.yul\":442:540   */\n    tag_41:\n        /* \"#utility.yul\":493:499   */\n      0x00\n        /* \"#utility.yul\":527:532   */\n      dup2\n        /* \"#utility.yul\":521:533   */\n      mload\n        /* \"#utility.yul\":511:533   */\n      swap1\n      pop\n        /* \"#utility.yul\":442:540   */\n      swap2\n      swap1\n      pop\n      jump\t// out\n        /* \"#utility.yul\":546:714   */\n    tag_42:\n        /* \"#utility.yul\":629:640   */\n      0x00\n        /* \"#utility.yul\":663:669   */\n      dup3\n        /* \"#utility.yul\":658:661   */\n      dup3\n        /* \"#utility.yul\":651:670   */\n      mstore\n        /* \"#utility.yul\":703:707   */\n      0x20\n        /* \"#utility.yul\":698:701   */\n      dup3\n        /* \"#utility.yul\":694:708   */\n      add\n        /* \"#utility.yul\":679:708   */\n      swap1\n      pop\n        /* \"#utility.yul\":546:714   */\n      swap3\n      swap2\n      pop\n      pop\n      jump\t// out\n        /* \"#utility.yul\":720:966   */\n    tag_43:\n        /* \"#utility.yul\":801:802   */\n      0x00\n        /* \"#utility.yul\":811:924   */\n    tag_64:\n        /* \"#utility.yul\":825:831   */\n      dup4\n        /* \"#utility.yul\":822:823   */\n      dup2\n        /* \"#utility.yul\":819:832   */\n      lt\n        /* \"#utility.yul\":811:924   */\n      iszero\n      tag_66\n      jumpi\n        /* \"#utility.yul\":910:911   */\n      dup1\n        /* \"#utility.yul\":905:908   */\n      dup3\n        /* \"#utility.yul\":901:912   */\n      add\n        /* \"#utility.yul\":895:913   */\n      mload\n        /* \"#utility.yul\":891:892   */\n      dup2\n        /* \"#utility.yul\":886:889   */\n      dup5\n        /* \"#utility.yul\":882:893   */\n      add\n        /* \"#utility.yul\":875:914   */\n      mstore\n        /* \"#utility.yul\":847:849   */\n      0x20\n        /* \"#utility.yul\":844:845   */\n      dup2\n        /* \"#utility.yul\":840:850   */\n      add\n        /* \"#utility.yul\":835:850   */\n      swap1\n      pop\n        /* \"#utility.yul\":811:924   */\n      jump(tag_64)\n    tag_66:\n        /* \"#utility.yul\":958:959   */\n      0x00\n        /* \"#utility.yul\":949:955   */\n      dup5\n        /* \"#utility.yul\":944:947   */\n      dup5\n        /* \"#utility.yul\":940:956   */\n      add\n        /* \"#utility.yul\":933:960   */\n      mstore\n        /* \"#utility.yul\":782:966   */\n      pop\n        /* \"#utility.yul\":720:966   */\n      pop\n      pop\n      pop\n      jump\t// out\n        /* \"#utility.yul\":972:1074   */\n    tag_44:\n        /* \"#utility.yul\":1013:1019   */\n      0x00\n        /* \"#utility.yul\":1064:1066   */\n      0x1f\n        /* \"#utility.yul\":1060:1067   */\n      not\n        /* \"#utility.yul\":1055:1057   */\n      0x1f\n        /* \"#utility.yul\":1048:1053   */\n      dup4\n        /* \"#utility.yul\":1044:1058   */\n      add\n        /* \"#utility.yul\":1040:1068   */\n      and\n        /* \"#utility.yul\":1030:1068   */\n      swap1\n      pop\n        /* \"#utility.yul\":972:1074   */\n      swap2\n      swap1\n      pop\n      jump\t// out\n        /* \"#utility.yul\":1080:1453   */\n    tag_45:\n        /* \"#utility.yul\":1166:1169   */\n      0x00\n        /* \"#utility.yul\":1194:1232   */\n      tag_69\n        /* \"#utility.yul\":1226:1231   */\n      dup3\n        /* \"#utility.yul\":1194:1232   */\n      tag_41\n      jump\t// in\n    tag_69:\n        /* \"#utility.yul\":1248:1318   */\n      tag_70\n        /* \"#utility.yul\":1311:1317   */\n      dup2\n        /* \"#utility.yul\":1306:1309   */\n      dup6\n        /* \"#utility.yul\":1248:1318   */\n      tag_42\n      jump\t// in\n    tag_70:\n        /* \"#utility.yul\":1241:1318   */\n      swap4\n      pop\n        /* \"#utility.yul\":1327:1392   */\n      tag_71\n        /* \"#utility.yul\":1385:1391   */\n      dup2\n        /* \"#utility.yul\":1380:1383   */\n      dup6\n        /* \"#utility.yul\":1373:1377   */\n      0x20\n        /* \"#utility.yul\":1366:1371   */\n      dup7\n        /* \"#utility.yul\":1362:1378   */\n      add\n        /* \"#utility.yul\":1327:1392   */\n      tag_43\n      jump\t// in\n    tag_71:\n        /* \"#utility.yul\":1417:1446   */\n      tag_72\n        /* \"#utility.yul\":1439:1445   */\n      dup2\n        /* \"#utility.yul\":1417:1446   */\n      tag_44\n      jump\t// in\n    tag_72:\n        /* \"#utility.yul\":1412:1415   */\n      dup5\n        /* \"#utility.yul\":1408:1447   */\n      add\n        /* \"#utility.yul\":1401:1447   */\n      swap2\n      pop\n        /* \"#utility.yul\":1170:1453   */\n      pop\n        /* \"#utility.yul\":1080:1453   */\n      swap3\n      swap2\n      pop\n      pop\n      jump\t// out\n        /* \"#utility.yul\":1459:1768   */\n    tag_15:\n        /* \"#utility.yul\":1570:1574   */\n      0x00\n        /* \"#utility.yul\":1608:1610   */\n      0x20\n        /* \"#utility.yul\":1597:1606   */\n      dup3\n        /* \"#utility.yul\":1593:1611   */\n      add\n        /* \"#utility.yul\":1585:1611   */\n      swap1\n      pop\n        /* \"#utility.yul\":1657:1666   */\n      dup2\n        /* \"#utility.yul\":1651:1655   */\n      dup2\n        /* \"#utility.yul\":1647:1667   */\n      sub\n        /* \"#utility.yul\":1643:1644   */\n      0x00\n        /* \"#utility.yul\":1632:1641   */\n      dup4\n        /* \"#utility.yul\":1628:1645   */\n      add\n        /* \"#utility.yul\":1621:1668   */\n      mstore\n        /* \"#utility.yul\":1685:1761   */\n      tag_74\n        /* \"#utility.yul\":1756:1760   */\n      dup2\n        /* \"#utility.yul\":1747:1753   */\n      dup5\n        /* \"#utility.yul\":1685:1761   */\n      tag_45\n      jump\t// in\n    tag_74:\n        /* \"#utility.yul\":1677:1761   */\n      swap1\n      pop\n        /* \"#utility.yul\":1459:1768   */\n      swap3\n      swap2\n      pop\n      pop\n      jump\t// out\n        /* \"#utility.yul\":1774:1900   */\n    tag_46:\n        /* \"#utility.yul\":1811:1818   */\n      0x00\n        /* \"#utility.yul\":1851:1893   */\n      0xffffffffffffffffffffffffffffffffffffffff\n        /* \"#utility.yul\":1844:1849   */\n      dup3\n        /* \"#utility.yul\":1840:1894   */\n      and\n        /* \"#utility.yul\":1829:1894   */\n      swap1\n      pop\n        /* \"#utility.yul\":1774:1900   */\n      swap2\n      swap1\n      pop\n      jump\t// out\n        /* \"#utility.yul\":1906:2002   */\n    tag_47:\n        /* \"#utility.yul\":1943:1950   */\n      0x00\n        /* \"#utility.yul\":1972:1996   */\n      tag_77\n        /* \"#utility.yul\":1990:1995   */\n      dup3\n        /* \"#utility.yul\":1972:1996   */\n      tag_46\n      jump\t// in\n    tag_77:\n        /* \"#utility.yul\":1961:1996   */\n      swap1\n      pop\n        /* \"#utility.yul\":1906:2002   */\n      swap2\n      swap1\n      pop\n      jump\t// out\n        /* \"#utility.yul\":2008:2126   */\n    tag_48:\n        /* \"#utility.yul\":2095:2119   */\n      tag_79\n        /* \"#utility.yul\":2113:2118   */\n      dup2\n        /* \"#utility.yul\":2095:2119   */\n      tag_47\n      jump\t// in\n    tag_79:\n        /* \"#utility.yul\":2090:2093   */\n      dup3\n        /* \"#utility.yul\":2083:2120   */\n      mstore\n        /* \"#utility.yul\":2008:2126   */\n      pop\n      pop\n      jump\t// out\n        /* \"#utility.yul\":2132:2354   */\n    tag_19:\n        /* \"#utility.yul\":2225:2229   */\n      0x00\n        /* \"#utility.yul\":2263:2265   */\n      0x20\n        /* \"#utility.yul\":2252:2261   */\n      dup3\n        /* \"#utility.yul\":2248:2266   */\n      add\n        /* \"#utility.yul\":2240:2266   */\n      swap1\n      pop\n        /* \"#utility.yul\":2276:2347   */\n      tag_81\n        /* \"#utility.yul\":2344:2345   */\n      0x00\n        /* \"#utility.yul\":2333:2342   */\n      dup4\n        /* \"#utility.yul\":2329:2346   */\n      add\n        /* \"#utility.yul\":2320:2326   */\n      dup5\n        /* \"#utility.yul\":2276:2347   */\n      tag_48\n      jump\t// in\n    tag_81:\n        /* \"#utility.yul\":2132:2354   */\n      swap3\n      swap2\n      pop\n      pop\n      jump\t// out\n        /* \"#utility.yul\":2360:2450   */\n    tag_49:\n        /* \"#utility.yul\":2394:2401   */\n      0x00\n        /* \"#utility.yul\":2437:2442   */\n      dup2\n        /* \"#utility.yul\":2430:2443   */\n      iszero\n        /* \"#utility.yul\":2423:2444   */\n      iszero\n        /* \"#utility.yul\":2412:2444   */\n      swap1\n      pop\n        /* \"#utility.yul\":2360:2450   */\n      swap2\n      swap1\n      pop\n      jump\t// out\n        /* \"#utility.yul\":2456:2565   */\n    tag_50:\n        /* \"#utility.yul\":2537:2558   */\n      tag_84\n        /* \"#utility.yul\":2552:2557   */\n      dup2\n        /* \"#utility.yul\":2537:2558   */\n      tag_49\n      jump\t// in\n    tag_84:\n        /* \"#utility.yul\":2532:2535   */\n      dup3\n        /* \"#utility.yul\":2525:2559   */\n      mstore\n        /* \"#utility.yul\":2456:2565   */\n      pop\n      pop\n      jump\t// out\n        /* \"#utility.yul\":2571:2781   */\n    tag_23:\n        /* \"#utility.yul\":2658:2662   */\n      0x00\n        /* \"#utility.yul\":2696:2698   */\n      0x20\n        /* \"#utility.yul\":2685:2694   */\n      dup3\n        /* \"#utility.yul\":2681:2699   */\n      add\n        /* \"#utility.yul\":2673:2699   */\n      swap1\n      pop\n        /* \"#utility.yul\":2709:2774   */\n      tag_86\n        /* \"#utility.yul\":2771:2772   */\n      0x00\n        /* \"#utility.yul\":2760:2769   */\n      dup4\n        /* \"#utility.yul\":2756:2773   */\n      add\n        /* \"#utility.yul\":2747:2753   */\n      dup5\n        /* \"#utility.yul\":2709:2774   */\n      tag_50\n      jump\t// in\n    tag_86:\n        /* \"#utility.yul\":2571:2781   */\n      swap3\n      swap2\n      pop\n      pop\n      jump\t// out\n        /* \"#utility.yul\":2787:2886   */\n    tag_51:\n        /* \"#utility.yul\":2839:2845   */\n      0x00\n        /* \"#utility.yul\":2873:2878   */\n      dup2\n        /* \"#utility.yul\":2867:2879   */\n      mload\n        /* \"#utility.yul\":2857:2879   */\n      swap1\n      pop\n        /* \"#utility.yul\":2787:2886   */\n      swap2\n      swap1\n      pop\n      jump\t// out\n        /* \"#utility.yul\":2892:3061   */\n    tag_52:\n        /* \"#utility.yul\":2976:2987   */\n      0x00\n        /* \"#utility.yul\":3010:3016   */\n      dup3\n        /* \"#utility.yul\":3005:3008   */\n      dup3\n        /* \"#utility.yul\":2998:3017   */\n      mstore\n        /* \"#utility.yul\":3050:3054   */\n      0x20\n        /* \"#utility.yul\":3045:3048   */\n      dup3\n        /* \"#utility.yul\":3041:3055   */\n      add\n        /* \"#utility.yul\":3026:3055   */\n      swap1\n      pop\n        /* \"#utility.yul\":2892:3061   */\n      swap3\n      swap2\n      pop\n      pop\n      jump\t// out\n        /* \"#utility.yul\":3067:3444   */\n    tag_53:\n        /* \"#utility.yul\":3155:3158   */\n      0x00\n        /* \"#utility.yul\":3183:3222   */\n      tag_90\n        /* \"#utility.yul\":3216:3221   */\n      dup3\n        /* \"#utility.yul\":3183:3222   */\n      tag_51\n      jump\t// in\n    tag_90:\n        /* \"#utility.yul\":3238:3309   */\n      tag_91\n        /* \"#utility.yul\":3302:3308   */\n      dup2\n        /* \"#utility.yul\":3297:3300   */\n      dup6\n        /* \"#utility.yul\":3238:3309   */\n      tag_52\n      jump\t// in\n    tag_91:\n        /* \"#utility.yul\":3231:3309   */\n      swap4\n      pop\n        /* \"#utility.yul\":3318:3383   */\n      tag_92\n        /* \"#utility.yul\":3376:3382   */\n      dup2\n        /* \"#utility.yul\":3371:3374   */\n      dup6\n        /* \"#utility.yul\":3364:3368   */\n      0x20\n        /* \"#utility.yul\":3357:3362   */\n      dup7\n        /* \"#utility.yul\":3353:3369   */\n      add\n        /* \"#utility.yul\":3318:3383   */\n      tag_43\n      jump\t// in\n    tag_92:\n        /* \"#utility.yul\":3408:3437   */\n      tag_93\n        /* \"#utility.yul\":3430:3436   */\n      dup2\n        /* \"#utility.yul\":3408:3437   */\n      tag_44\n      jump\t// in\n    tag_93:\n        /* \"#utility.yul\":3403:3406   */\n      dup5\n        /* \"#utility.yul\":3399:3438   */\n      add\n        /* \"#utility.yul\":3392:3438   */\n      swap2\n      pop\n        /* \"#utility.yul\":3159:3444   */\n      pop\n        /* \"#utility.yul\":3067:3444   */\n      swap3\n      swap2\n      pop\n      pop\n      jump\t// out\n        /* \"#utility.yul\":3450:3763   */\n    tag_27:\n        /* \"#utility.yul\":3563:3567   */\n      0x00\n        /* \"#utility.yul\":3601:3603   */\n      0x20\n        /* \"#utility.yul\":3590:3599   */\n      dup3\n        /* \"#utility.yul\":3586:3604   */\n      add\n        /* \"#utility.yul\":3578:3604   */\n      swap1\n      pop\n        /* \"#utility.yul\":3650:3659   */\n      dup2\n        /* \"#utility.yul\":3644:3648   */\n      dup2\n        /* \"#utility.yul\":3640:3660   */\n      sub\n        /* \"#utility.yul\":3636:3637   */\n      0x00\n        /* \"#utility.yul\":3625:3634   */\n      dup4\n        /* \"#utility.yul\":3621:3638   */\n      add\n        /* \"#utility.yul\":3614:3661   */\n      mstore\n        /* \"#utility.yul\":3678:3756   */\n      tag_95\n        /* \"#utility.yul\":3751:3755   */\n      dup2\n        /* \"#utility.yul\":3742:3748   */\n      dup5\n        /* \"#utility.yul\":3678:3756   */\n      tag_53\n      jump\t// in\n    tag_95:\n        /* \"#utility.yul\":3670:3756   */\n      swap1\n      pop\n        /* \"#utility.yul\":3450:3763   */\n      swap3\n      swap2\n      pop\n      pop\n      jump\t// out\n        /* \"#utility.yul\":3769:3949   */\n    tag_54:\n        /* \"#utility.yul\":3817:3894   */\n      0x4e487b7100000000000000000000000000000000000000000000000000000000\n        /* \"#utility.yul\":3814:3815   */\n      0x00\n        /* \"#utility.yul\":3807:3895   */\n      mstore\n        /* \"#utility.yul\":3914:3918   */\n      0x22\n        /* \"#utility.yul\":3911:3912   */\n      0x04\n        /* \"#utility.yul\":3904:3919   */\n      mstore\n        /* \"#utility.yul\":3938:3942   */\n      0x24\n        /* \"#utility.yul\":3935:3936   */\n      0x00\n        /* \"#utility.yul\":3928:3943   */\n      revert\n        /* \"#utility.yul\":3955:4275   */\n    tag_29:\n        /* \"#utility.yul\":3999:4005   */\n      0x00\n        /* \"#utility.yul\":4036:4037   */\n      0x02\n        /* \"#utility.yul\":4030:4034   */\n      dup3\n        /* \"#utility.yul\":4026:4038   */\n      div\n        /* \"#utility.yul\":4016:4038   */\n      swap1\n      pop\n        /* \"#utility.yul\":4083:4084   */\n      0x01\n        /* \"#utility.yul\":4077:4081   */\n      dup3\n        /* \"#utility.yul\":4073:4085   */\n      and\n        /* \"#utility.yul\":4104:4122   */\n      dup1\n        /* \"#utility.yul\":4094:4175   */\n      tag_98\n      jumpi\n        /* \"#utility.yul\":4160:4164   */\n      0x7f\n        /* \"#utility.yul\":4152:4158   */\n      dup3\n        /* \"#utility.yul\":4148:4165   */\n      and\n        /* \"#utility.yul\":4138:4165   */\n      swap2\n      pop\n        /* \"#utility.yul\":4094:4175   */\n    tag_98:\n        /* \"#utility.yul\":4222:4224   */\n      0x20\n        /* \"#utility.yul\":4214:4220   */\n      dup3\n        /* \"#utility.yul\":4211:4225   */\n      lt\n        /* \"#utility.yul\":4191:4209   */\n      dup2\n        /* \"#utility.yul\":4188:4226   */\n      sub\n        /* \"#utility.yul\":4185:4269   */\n      tag_99\n      jumpi\n        /* \"#utility.yul\":4241:4259   */\n      tag_100\n      tag_54\n      jump\t// in\n    tag_100:\n        /* \"#utility.yul\":4185:4269   */\n    tag_99:\n        /* \"#utility.yul\":4006:4275   */\n      pop\n        /* \"#utility.yul\":3955:4275   */\n      swap2\n      swap1\n      pop\n      jump\t// out\n\n    auxdata: 0xa26469706673582212200e483361097988d82a2f80e9a3cd8b32163d654acf698de9146672a59a4635fe64736f6c63430008100033\n}\n",
				"bytecode": {
					"linkReferences": {},
					"object": "608060405260176000556040518060400160405280600b81526020017f416264756c4d756a656562000000000000000000000000000000000000000000815250600190816200004f919062000395565b506001600260006101000a81548160ff0219169083151502179055506040518060400160405280600c81526020017f476f6f64204d6f726e696e67000000000000000000000000000000000000000081525060039081620000b19190620004e1565b50735b38da6a701c568545dcfcb03fcb875f56beddc4600460006101000a81548173ffffffffffffffffffffffffffffffffffffffff021916908373ffffffffffffffffffffffffffffffffffffffff1602179055503480156200011457600080fd5b50620005c8565b600081519050919050565b7f4e487b7100000000000000000000000000000000000000000000000000000000600052604160045260246000fd5b7f4e487b7100000000000000000000000000000000000000000000000000000000600052602260045260246000fd5b600060028204905060018216806200019d57607f821691505b602082108103620001b357620001b262000155565b5b50919050565b60008190508160005260206000209050919050565b60006020601f8301049050919050565b600082821b905092915050565b6000600883026200021d7fffffffffffffffffffffffffffffffffffffffffffffffffffffffffffffffff82620001de565b620002298683620001de565b95508019841693508086168417925050509392505050565b6000819050919050565b6000819050919050565b600062000276620002706200026a8462000241565b6200024b565b62000241565b9050919050565b6000819050919050565b620002928362000255565b620002aa620002a1826200027d565b848454620001eb565b825550505050565b600090565b620002c1620002b2565b620002ce81848462000287565b505050565b5b81811015620002f657620002ea600082620002b7565b600181019050620002d4565b5050565b601f82111562000345576200030f81620001b9565b6200031a84620001ce565b810160208510156200032a578190505b620003426200033985620001ce565b830182620002d3565b50505b505050565b600082821c905092915050565b60006200036a600019846008026200034a565b1980831691505092915050565b600062000385838362000357565b9150826002028217905092915050565b620003a0826200011b565b67ffffffffffffffff811115620003bc57620003bb62000126565b5b620003c8825462000184565b620003d5828285620002fa565b600060209050601f8311600181146200040d5760008415620003f8578287015190505b62000404858262000377565b86555062000474565b601f1984166200041d86620001b9565b60005b82811015620004475784890151825560018201915060208501945060208101905062000420565b8683101562000467578489015162000463601f89168262000357565b8355505b6001600288020188555050505b505050505050565b60008190508160005260206000209050919050565b601f821115620004dc57620004a6816200047c565b620004b184620001ce565b81016020851015620004c1578190505b620004d9620004d085620001ce565b830182620002d3565b50505b505050565b620004ec826200011b565b67ffffffffffffffff81111562000508576200050762000126565b5b62000514825462000184565b6200052182828562000491565b600060209050601f83116001811462000559576000841562000544578287015190505b62000550858262000377565b865550620005c0565b601f19841662000569866200047c565b60005b8281101562000593578489015182556001820191506020850194506020810190506200056c565b86831015620005b35784890151620005af601f89168262000357565b8355505b6001600288020188555050505b505050505050565b6104d280620005d86000396000f3fe608060405234801561001057600080fd5b50600436106100575760003560e01c8063262a9dff1461005c5780634f8632ba1461007a5780638da5cb5b14610098578063d3618cca146100b6578063ef690cc0146100d4575b600080fd5b6100646100f2565b6040516100719190610266565b60405180910390f35b6100826100f8565b60405161008f9190610311565b60405180910390f35b6100a0610186565b6040516100ad9190610374565b60405180910390f35b6100be6101ac565b6040516100cb91906103aa565b60405180910390f35b6100dc6101bf565b6040516100e9919061041a565b60405180910390f35b60005481565b600180546101059061046b565b80601f01602080910402602001604051908101604052809291908181526020018280546101319061046b565b801561017e5780601f106101535761010080835404028352916020019161017e565b820191906000526020600020905b81548152906001019060200180831161016157829003601f168201915b505050505081565b600460009054906101000a900473ffffffffffffffffffffffffffffffffffffffff1681565b600260009054906101000a900460ff1681565b600380546101cc9061046b565b80601f01602080910402602001604051908101604052809291908181526020018280546101f89061046b565b80156102455780601f1061021a57610100808354040283529160200191610245565b820191906000526020600020905b81548152906001019060200180831161022857829003601f168201915b505050505081565b6000819050919050565b6102608161024d565b82525050565b600060208201905061027b6000830184610257565b92915050565b600081519050919050565b600082825260208201905092915050565b60005b838110156102bb5780820151818401526020810190506102a0565b60008484015250505050565b6000601f19601f8301169050919050565b60006102e382610281565b6102ed818561028c565b93506102fd81856020860161029d565b610306816102c7565b840191505092915050565b6000602082019050818103600083015261032b81846102d8565b905092915050565b600073ffffffffffffffffffffffffffffffffffffffff82169050919050565b600061035e82610333565b9050919050565b61036e81610353565b82525050565b60006020820190506103896000830184610365565b92915050565b60008115159050919050565b6103a48161038f565b82525050565b60006020820190506103bf600083018461039b565b92915050565b600081519050919050565b600082825260208201905092915050565b60006103ec826103c5565b6103f681856103d0565b935061040681856020860161029d565b61040f816102c7565b840191505092915050565b6000602082019050818103600083015261043481846103e1565b905092915050565b7f4e487b7100000000000000000000000000000000000000000000000000000000600052602260045260246000fd5b6000600282049050600182168061048357607f821691505b6020821081036104965761049561043c565b5b5091905056fea26469706673582212200e483361097988d82a2f80e9a3cd8b32163d654acf698de9146672a59a4635fe64736f6c63430008100033",
					"opcodes": "PUSH1 0x80 PUSH1 0x40 MSTORE PUSH1 0x17 PUSH1 0x0 SSTORE PUSH1 0x40 MLOAD DUP1 PUSH1 0x40 ADD PUSH1 0x40 MSTORE DUP1 PUSH1 0xB DUP2 MSTORE PUSH1 0x20 ADD PUSH32 0x416264756C4D756A656562000000000000000000000000000000000000000000 DUP2 MSTORE POP PUSH1 0x1 SWAP1 DUP2 PUSH3 0x4F SWAP2 SWAP1 PUSH3 0x395 JUMP JUMPDEST POP PUSH1 0x1 PUSH1 0x2 PUSH1 0x0 PUSH2 0x100 EXP DUP2 SLOAD DUP2 PUSH1 0xFF MUL NOT AND SWAP1 DUP4 ISZERO ISZERO MUL OR SWAP1 SSTORE POP PUSH1 0x40 MLOAD DUP1 PUSH1 0x40 ADD PUSH1 0x40 MSTORE DUP1 PUSH1 0xC DUP2 MSTORE PUSH1 0x20 ADD PUSH32 0x476F6F64204D6F726E696E670000000000000000000000000000000000000000 DUP2 MSTORE POP PUSH1 0x3 SWAP1 DUP2 PUSH3 0xB1 SWAP2 SWAP1 PUSH3 0x4E1 JUMP JUMPDEST POP PUSH20 0x5B38DA6A701C568545DCFCB03FCB875F56BEDDC4 PUSH1 0x4 PUSH1 0x0 PUSH2 0x100 EXP DUP2 SLOAD DUP2 PUSH20 0xFFFFFFFFFFFFFFFFFFFFFFFFFFFFFFFFFFFFFFFF MUL NOT AND SWAP1 DUP4 PUSH20 0xFFFFFFFFFFFFFFFFFFFFFFFFFFFFFFFFFFFFFFFF AND MUL OR SWAP1 SSTORE POP CALLVALUE DUP1 ISZERO PUSH3 0x114 JUMPI PUSH1 0x0 DUP1 REVERT JUMPDEST POP PUSH3 0x5C8 JUMP JUMPDEST PUSH1 0x0 DUP2 MLOAD SWAP1 POP SWAP2 SWAP1 POP JUMP JUMPDEST PUSH32 0x4E487B7100000000000000000000000000000000000000000000000000000000 PUSH1 0x0 MSTORE PUSH1 0x41 PUSH1 0x4 MSTORE PUSH1 0x24 PUSH1 0x0 REVERT JUMPDEST PUSH32 0x4E487B7100000000000000000000000000000000000000000000000000000000 PUSH1 0x0 MSTORE PUSH1 0x22 PUSH1 0x4 MSTORE PUSH1 0x24 PUSH1 0x0 REVERT JUMPDEST PUSH1 0x0 PUSH1 0x2 DUP3 DIV SWAP1 POP PUSH1 0x1 DUP3 AND DUP1 PUSH3 0x19D JUMPI PUSH1 0x7F DUP3 AND SWAP2 POP JUMPDEST PUSH1 0x20 DUP3 LT DUP2 SUB PUSH3 0x1B3 JUMPI PUSH3 0x1B2 PUSH3 0x155 JUMP JUMPDEST JUMPDEST POP SWAP2 SWAP1 POP JUMP JUMPDEST PUSH1 0x0 DUP2 SWAP1 POP DUP2 PUSH1 0x0 MSTORE PUSH1 0x20 PUSH1 0x0 KECCAK256 SWAP1 POP SWAP2 SWAP1 POP JUMP JUMPDEST PUSH1 0x0 PUSH1 0x20 PUSH1 0x1F DUP4 ADD DIV SWAP1 POP SWAP2 SWAP1 POP JUMP JUMPDEST PUSH1 0x0 DUP3 DUP3 SHL SWAP1 POP SWAP3 SWAP2 POP POP JUMP JUMPDEST PUSH1 0x0 PUSH1 0x8 DUP4 MUL PUSH3 0x21D PUSH32 0xFFFFFFFFFFFFFFFFFFFFFFFFFFFFFFFFFFFFFFFFFFFFFFFFFFFFFFFFFFFFFFFF DUP3 PUSH3 0x1DE JUMP JUMPDEST PUSH3 0x229 DUP7 DUP4 PUSH3 0x1DE JUMP JUMPDEST SWAP6 POP DUP1 NOT DUP5 AND SWAP4 POP DUP1 DUP7 AND DUP5 OR SWAP3 POP POP POP SWAP4 SWAP3 POP POP POP JUMP JUMPDEST PUSH1 0x0 DUP2 SWAP1 POP SWAP2 SWAP1 POP JUMP JUMPDEST PUSH1 0x0 DUP2 SWAP1 POP SWAP2 SWAP1 POP JUMP JUMPDEST PUSH1 0x0 PUSH3 0x276 PUSH3 0x270 PUSH3 0x26A DUP5 PUSH3 0x241 JUMP JUMPDEST PUSH3 0x24B JUMP JUMPDEST PUSH3 0x241 JUMP JUMPDEST SWAP1 POP SWAP2 SWAP1 POP JUMP JUMPDEST PUSH1 0x0 DUP2 SWAP1 POP SWAP2 SWAP1 POP JUMP JUMPDEST PUSH3 0x292 DUP4 PUSH3 0x255 JUMP JUMPDEST PUSH3 0x2AA PUSH3 0x2A1 DUP3 PUSH3 0x27D JUMP JUMPDEST DUP5 DUP5 SLOAD PUSH3 0x1EB JUMP JUMPDEST DUP3 SSTORE POP POP POP POP JUMP JUMPDEST PUSH1 0x0 SWAP1 JUMP JUMPDEST PUSH3 0x2C1 PUSH3 0x2B2 JUMP JUMPDEST PUSH3 0x2CE DUP2 DUP5 DUP5 PUSH3 0x287 JUMP JUMPDEST POP POP POP JUMP JUMPDEST JUMPDEST DUP2 DUP2 LT ISZERO PUSH3 0x2F6 JUMPI PUSH3 0x2EA PUSH1 0x0 DUP3 PUSH3 0x2B7 JUMP JUMPDEST PUSH1 0x1 DUP2 ADD SWAP1 POP PUSH3 0x2D4 JUMP JUMPDEST POP POP JUMP JUMPDEST PUSH1 0x1F DUP3 GT ISZERO PUSH3 0x345 JUMPI PUSH3 0x30F DUP2 PUSH3 0x1B9 JUMP JUMPDEST PUSH3 0x31A DUP5 PUSH3 0x1CE JUMP JUMPDEST DUP2 ADD PUSH1 0x20 DUP6 LT ISZERO PUSH3 0x32A JUMPI DUP2 SWAP1 POP JUMPDEST PUSH3 0x342 PUSH3 0x339 DUP6 PUSH3 0x1CE JUMP JUMPDEST DUP4 ADD DUP3 PUSH3 0x2D3 JUMP JUMPDEST POP POP JUMPDEST POP POP POP JUMP JUMPDEST PUSH1 0x0 DUP3 DUP3 SHR SWAP1 POP SWAP3 SWAP2 POP POP JUMP JUMPDEST PUSH1 0x0 PUSH3 0x36A PUSH1 0x0 NOT DUP5 PUSH1 0x8 MUL PUSH3 0x34A JUMP JUMPDEST NOT DUP1 DUP4 AND SWAP2 POP POP SWAP3 SWAP2 POP POP JUMP JUMPDEST PUSH1 0x0 PUSH3 0x385 DUP4 DUP4 PUSH3 0x357 JUMP JUMPDEST SWAP2 POP DUP3 PUSH1 0x2 MUL DUP3 OR SWAP1 POP SWAP3 SWAP2 POP POP JUMP JUMPDEST PUSH3 0x3A0 DUP3 PUSH3 0x11B JUMP JUMPDEST PUSH8 0xFFFFFFFFFFFFFFFF DUP2 GT ISZERO PUSH3 0x3BC JUMPI PUSH3 0x3BB PUSH3 0x126 JUMP JUMPDEST JUMPDEST PUSH3 0x3C8 DUP3 SLOAD PUSH3 0x184 JUMP JUMPDEST PUSH3 0x3D5 DUP3 DUP3 DUP6 PUSH3 0x2FA JUMP JUMPDEST PUSH1 0x0 PUSH1 0x20 SWAP1 POP PUSH1 0x1F DUP4 GT PUSH1 0x1 DUP2 EQ PUSH3 0x40D JUMPI PUSH1 0x0 DUP5 ISZERO PUSH3 0x3F8 JUMPI DUP3 DUP8 ADD MLOAD SWAP1 POP JUMPDEST PUSH3 0x404 DUP6 DUP3 PUSH3 0x377 JUMP JUMPDEST DUP7 SSTORE POP PUSH3 0x474 JUMP JUMPDEST PUSH1 0x1F NOT DUP5 AND PUSH3 0x41D DUP7 PUSH3 0x1B9 JUMP JUMPDEST PUSH1 0x0 JUMPDEST DUP3 DUP2 LT ISZERO PUSH3 0x447 JUMPI DUP5 DUP10 ADD MLOAD DUP3 SSTORE PUSH1 0x1 DUP3 ADD SWAP2 POP PUSH1 0x20 DUP6 ADD SWAP5 POP PUSH1 0x20 DUP2 ADD SWAP1 POP PUSH3 0x420 JUMP JUMPDEST DUP7 DUP4 LT ISZERO PUSH3 0x467 JUMPI DUP5 DUP10 ADD MLOAD PUSH3 0x463 PUSH1 0x1F DUP10 AND DUP3 PUSH3 0x357 JUMP JUMPDEST DUP4 SSTORE POP JUMPDEST PUSH1 0x1 PUSH1 0x2 DUP9 MUL ADD DUP9 SSTORE POP POP POP JUMPDEST POP POP POP POP POP POP JUMP JUMPDEST PUSH1 0x0 DUP2 SWAP1 POP DUP2 PUSH1 0x0 MSTORE PUSH1 0x20 PUSH1 0x0 KECCAK256 SWAP1 POP SWAP2 SWAP1 POP JUMP JUMPDEST PUSH1 0x1F DUP3 GT ISZERO PUSH3 0x4DC JUMPI PUSH3 0x4A6 DUP2 PUSH3 0x47C JUMP JUMPDEST PUSH3 0x4B1 DUP5 PUSH3 0x1CE JUMP JUMPDEST DUP2 ADD PUSH1 0x20 DUP6 LT ISZERO PUSH3 0x4C1 JUMPI DUP2 SWAP1 POP JUMPDEST PUSH3 0x4D9 PUSH3 0x4D0 DUP6 PUSH3 0x1CE JUMP JUMPDEST DUP4 ADD DUP3 PUSH3 0x2D3 JUMP JUMPDEST POP POP JUMPDEST POP POP POP JUMP JUMPDEST PUSH3 0x4EC DUP3 PUSH3 0x11B JUMP JUMPDEST PUSH8 0xFFFFFFFFFFFFFFFF DUP2 GT ISZERO PUSH3 0x508 JUMPI PUSH3 0x507 PUSH3 0x126 JUMP JUMPDEST JUMPDEST PUSH3 0x514 DUP3 SLOAD PUSH3 0x184 JUMP JUMPDEST PUSH3 0x521 DUP3 DUP3 DUP6 PUSH3 0x491 JUMP JUMPDEST PUSH1 0x0 PUSH1 0x20 SWAP1 POP PUSH1 0x1F DUP4 GT PUSH1 0x1 DUP2 EQ PUSH3 0x559 JUMPI PUSH1 0x0 DUP5 ISZERO PUSH3 0x544 JUMPI DUP3 DUP8 ADD MLOAD SWAP1 POP JUMPDEST PUSH3 0x550 DUP6 DUP3 PUSH3 0x377 JUMP JUMPDEST DUP7 SSTORE POP PUSH3 0x5C0 JUMP JUMPDEST PUSH1 0x1F NOT DUP5 AND PUSH3 0x569 DUP7 PUSH3 0x47C JUMP JUMPDEST PUSH1 0x0 JUMPDEST DUP3 DUP2 LT ISZERO PUSH3 0x593 JUMPI DUP5 DUP10 ADD MLOAD DUP3 SSTORE PUSH1 0x1 DUP3 ADD SWAP2 POP PUSH1 0x20 DUP6 ADD SWAP5 POP PUSH1 0x20 DUP2 ADD SWAP1 POP PUSH3 0x56C JUMP JUMPDEST DUP7 DUP4 LT ISZERO PUSH3 0x5B3 JUMPI DUP5 DUP10 ADD MLOAD PUSH3 0x5AF PUSH1 0x1F DUP10 AND DUP3 PUSH3 0x357 JUMP JUMPDEST DUP4 SSTORE POP JUMPDEST PUSH1 0x1 PUSH1 0x2 DUP9 MUL ADD DUP9 SSTORE POP POP POP JUMPDEST POP POP POP POP POP POP JUMP JUMPDEST PUSH2 0x4D2 DUP1 PUSH3 0x5D8 PUSH1 0x0 CODECOPY PUSH1 0x0 RETURN INVALID PUSH1 0x80 PUSH1 0x40 MSTORE CALLVALUE DUP1 ISZERO PUSH2 0x10 JUMPI PUSH1 0x0 DUP1 REVERT JUMPDEST POP PUSH1 0x4 CALLDATASIZE LT PUSH2 0x57 JUMPI PUSH1 0x0 CALLDATALOAD PUSH1 0xE0 SHR DUP1 PUSH4 0x262A9DFF EQ PUSH2 0x5C JUMPI DUP1 PUSH4 0x4F8632BA EQ PUSH2 0x7A JUMPI DUP1 PUSH4 0x8DA5CB5B EQ PUSH2 0x98 JUMPI DUP1 PUSH4 0xD3618CCA EQ PUSH2 0xB6 JUMPI DUP1 PUSH4 0xEF690CC0 EQ PUSH2 0xD4 JUMPI JUMPDEST PUSH1 0x0 DUP1 REVERT JUMPDEST PUSH2 0x64 PUSH2 0xF2 JUMP JUMPDEST PUSH1 0x40 MLOAD PUSH2 0x71 SWAP2 SWAP1 PUSH2 0x266 JUMP JUMPDEST PUSH1 0x40 MLOAD DUP1 SWAP2 SUB SWAP1 RETURN JUMPDEST PUSH2 0x82 PUSH2 0xF8 JUMP JUMPDEST PUSH1 0x40 MLOAD PUSH2 0x8F SWAP2 SWAP1 PUSH2 0x311 JUMP JUMPDEST PUSH1 0x40 MLOAD DUP1 SWAP2 SUB SWAP1 RETURN JUMPDEST PUSH2 0xA0 PUSH2 0x186 JUMP JUMPDEST PUSH1 0x40 MLOAD PUSH2 0xAD SWAP2 SWAP1 PUSH2 0x374 JUMP JUMPDEST PUSH1 0x40 MLOAD DUP1 SWAP2 SUB SWAP1 RETURN JUMPDEST PUSH2 0xBE PUSH2 0x1AC JUMP JUMPDEST PUSH1 0x40 MLOAD PUSH2 0xCB SWAP2 SWAP1 PUSH2 0x3AA JUMP JUMPDEST PUSH1 0x40 MLOAD DUP1 SWAP2 SUB SWAP1 RETURN JUMPDEST PUSH2 0xDC PUSH2 0x1BF JUMP JUMPDEST PUSH1 0x40 MLOAD PUSH2 0xE9 SWAP2 SWAP1 PUSH2 0x41A JUMP JUMPDEST PUSH1 0x40 MLOAD DUP1 SWAP2 SUB SWAP1 RETURN JUMPDEST PUSH1 0x0 SLOAD DUP2 JUMP JUMPDEST PUSH1 0x1 DUP1 SLOAD PUSH2 0x105 SWAP1 PUSH2 0x46B JUMP JUMPDEST DUP1 PUSH1 0x1F ADD PUSH1 0x20 DUP1 SWAP2 DIV MUL PUSH1 0x20 ADD PUSH1 0x40 MLOAD SWAP1 DUP2 ADD PUSH1 0x40 MSTORE DUP1 SWAP3 SWAP2 SWAP1 DUP2 DUP2 MSTORE PUSH1 0x20 ADD DUP3 DUP1 SLOAD PUSH2 0x131 SWAP1 PUSH2 0x46B JUMP JUMPDEST DUP1 ISZERO PUSH2 0x17E JUMPI DUP1 PUSH1 0x1F LT PUSH2 0x153 JUMPI PUSH2 0x100 DUP1 DUP4 SLOAD DIV MUL DUP4 MSTORE SWAP2 PUSH1 0x20 ADD SWAP2 PUSH2 0x17E JUMP JUMPDEST DUP3 ADD SWAP2 SWAP1 PUSH1 0x0 MSTORE PUSH1 0x20 PUSH1 0x0 KECCAK256 SWAP1 JUMPDEST DUP2 SLOAD DUP2 MSTORE SWAP1 PUSH1 0x1 ADD SWAP1 PUSH1 0x20 ADD DUP1 DUP4 GT PUSH2 0x161 JUMPI DUP3 SWAP1 SUB PUSH1 0x1F AND DUP3 ADD SWAP2 JUMPDEST POP POP POP POP POP DUP2 JUMP JUMPDEST PUSH1 0x4 PUSH1 0x0 SWAP1 SLOAD SWAP1 PUSH2 0x100 EXP SWAP1 DIV PUSH20 0xFFFFFFFFFFFFFFFFFFFFFFFFFFFFFFFFFFFFFFFF AND DUP2 JUMP JUMPDEST PUSH1 0x2 PUSH1 0x0 SWAP1 SLOAD SWAP1 PUSH2 0x100 EXP SWAP1 DIV PUSH1 0xFF AND DUP2 JUMP JUMPDEST PUSH1 0x3 DUP1 SLOAD PUSH2 0x1CC SWAP1 PUSH2 0x46B JUMP JUMPDEST DUP1 PUSH1 0x1F ADD PUSH1 0x20 DUP1 SWAP2 DIV MUL PUSH1 0x20 ADD PUSH1 0x40 MLOAD SWAP1 DUP2 ADD PUSH1 0x40 MSTORE DUP1 SWAP3 SWAP2 SWAP1 DUP2 DUP2 MSTORE PUSH1 0x20 ADD DUP3 DUP1 SLOAD PUSH2 0x1F8 SWAP1 PUSH2 0x46B JUMP JUMPDEST DUP1 ISZERO PUSH2 0x245 JUMPI DUP1 PUSH1 0x1F LT PUSH2 0x21A JUMPI PUSH2 0x100 DUP1 DUP4 SLOAD DIV MUL DUP4 MSTORE SWAP2 PUSH1 0x20 ADD SWAP2 PUSH2 0x245 JUMP JUMPDEST DUP3 ADD SWAP2 SWAP1 PUSH1 0x0 MSTORE PUSH1 0x20 PUSH1 0x0 KECCAK256 SWAP1 JUMPDEST DUP2 SLOAD DUP2 MSTORE SWAP1 PUSH1 0x1 ADD SWAP1 PUSH1 0x20 ADD DUP1 DUP4 GT PUSH2 0x228 JUMPI DUP3 SWAP1 SUB PUSH1 0x1F AND DUP3 ADD SWAP2 JUMPDEST POP POP POP POP POP DUP2 JUMP JUMPDEST PUSH1 0x0 DUP2 SWAP1 POP SWAP2 SWAP1 POP JUMP JUMPDEST PUSH2 0x260 DUP2 PUSH2 0x24D JUMP JUMPDEST DUP3 MSTORE POP POP JUMP JUMPDEST PUSH1 0x0 PUSH1 0x20 DUP3 ADD SWAP1 POP PUSH2 0x27B PUSH1 0x0 DUP4 ADD DUP5 PUSH2 0x257 JUMP JUMPDEST SWAP3 SWAP2 POP POP JUMP JUMPDEST PUSH1 0x0 DUP2 MLOAD SWAP1 POP SWAP2 SWAP1 POP JUMP JUMPDEST PUSH1 0x0 DUP3 DUP3 MSTORE PUSH1 0x20 DUP3 ADD SWAP1 POP SWAP3 SWAP2 POP POP JUMP JUMPDEST PUSH1 0x0 JUMPDEST DUP4 DUP2 LT ISZERO PUSH2 0x2BB JUMPI DUP1 DUP3 ADD MLOAD DUP2 DUP5 ADD MSTORE PUSH1 0x20 DUP2 ADD SWAP1 POP PUSH2 0x2A0 JUMP JUMPDEST PUSH1 0x0 DUP5 DUP5 ADD MSTORE POP POP POP POP JUMP JUMPDEST PUSH1 0x0 PUSH1 0x1F NOT PUSH1 0x1F DUP4 ADD AND SWAP1 POP SWAP2 SWAP1 POP JUMP JUMPDEST PUSH1 0x0 PUSH2 0x2E3 DUP3 PUSH2 0x281 JUMP JUMPDEST PUSH2 0x2ED DUP2 DUP6 PUSH2 0x28C JUMP JUMPDEST SWAP4 POP PUSH2 0x2FD DUP2 DUP6 PUSH1 0x20 DUP7 ADD PUSH2 0x29D JUMP JUMPDEST PUSH2 0x306 DUP2 PUSH2 0x2C7 JUMP JUMPDEST DUP5 ADD SWAP2 POP POP SWAP3 SWAP2 POP POP JUMP JUMPDEST PUSH1 0x0 PUSH1 0x20 DUP3 ADD SWAP1 POP DUP2 DUP2 SUB PUSH1 0x0 DUP4 ADD MSTORE PUSH2 0x32B DUP2 DUP5 PUSH2 0x2D8 JUMP JUMPDEST SWAP1 POP SWAP3 SWAP2 POP POP JUMP JUMPDEST PUSH1 0x0 PUSH20 0xFFFFFFFFFFFFFFFFFFFFFFFFFFFFFFFFFFFFFFFF DUP3 AND SWAP1 POP SWAP2 SWAP1 POP JUMP JUMPDEST PUSH1 0x0 PUSH2 0x35E DUP3 PUSH2 0x333 JUMP JUMPDEST SWAP1 POP SWAP2 SWAP1 POP JUMP JUMPDEST PUSH2 0x36E DUP2 PUSH2 0x353 JUMP JUMPDEST DUP3 MSTORE POP POP JUMP JUMPDEST PUSH1 0x0 PUSH1 0x20 DUP3 ADD SWAP1 POP PUSH2 0x389 PUSH1 0x0 DUP4 ADD DUP5 PUSH2 0x365 JUMP JUMPDEST SWAP3 SWAP2 POP POP JUMP JUMPDEST PUSH1 0x0 DUP2 ISZERO ISZERO SWAP1 POP SWAP2 SWAP1 POP JUMP JUMPDEST PUSH2 0x3A4 DUP2 PUSH2 0x38F JUMP JUMPDEST DUP3 MSTORE POP POP JUMP JUMPDEST PUSH1 0x0 PUSH1 0x20 DUP3 ADD SWAP1 POP PUSH2 0x3BF PUSH1 0x0 DUP4 ADD DUP5 PUSH2 0x39B JUMP JUMPDEST SWAP3 SWAP2 POP POP JUMP JUMPDEST PUSH1 0x0 DUP2 MLOAD SWAP1 POP SWAP2 SWAP1 POP JUMP JUMPDEST PUSH1 0x0 DUP3 DUP3 MSTORE PUSH1 0x20 DUP3 ADD SWAP1 POP SWAP3 SWAP2 POP POP JUMP JUMPDEST PUSH1 0x0 PUSH2 0x3EC DUP3 PUSH2 0x3C5 JUMP JUMPDEST PUSH2 0x3F6 DUP2 DUP6 PUSH2 0x3D0 JUMP JUMPDEST SWAP4 POP PUSH2 0x406 DUP2 DUP6 PUSH1 0x20 DUP7 ADD PUSH2 0x29D JUMP JUMPDEST PUSH2 0x40F DUP2 PUSH2 0x2C7 JUMP JUMPDEST DUP5 ADD SWAP2 POP POP SWAP3 SWAP2 POP POP JUMP JUMPDEST PUSH1 0x0 PUSH1 0x20 DUP3 ADD SWAP1 POP DUP2 DUP2 SUB PUSH1 0x0 DUP4 ADD MSTORE PUSH2 0x434 DUP2 DUP5 PUSH2 0x3E1 JUMP JUMPDEST SWAP1 POP SWAP3 SWAP2 POP POP JUMP JUMPDEST PUSH32 0x4E487B7100000000000000000000000000000000000000000000000000000000 PUSH1 0x0 MSTORE PUSH1 0x22 PUSH1 0x4 MSTORE PUSH1 0x24 PUSH1 0x0 REVERT JUMPDEST PUSH1 0x0 PUSH1 0x2 DUP3 DIV SWAP1 POP PUSH1 0x1 DUP3 AND DUP1 PUSH2 0x483 JUMPI PUSH1 0x7F DUP3 AND SWAP2 POP JUMPDEST PUSH1 0x20 DUP3 LT DUP2 SUB PUSH2 0x496 JUMPI PUSH2 0x495 PUSH2 0x43C JUMP JUMPDEST JUMPDEST POP SWAP2 SWAP1 POP JUMP INVALID LOG2 PUSH5 0x6970667358 0x22 SLT KECCAK256 0xE BASEFEE CALLER PUSH2 0x979 DUP9 0xD8 0x2A 0x2F DUP1 0xE9 LOG3 0xCD DUP12 ORIGIN AND RETURNDATASIZE PUSH6 0x4ACF698DE914 PUSH7 0x72A59A4635FE64 PUSH20 0x6F6C634300081000330000000000000000000000 "
				},
				"gasEstimates": {
					"creation": {
						"codeDepositCost": "246800",
						"executionCost": "infinite",
						"totalCost": "infinite"
					},
					"external": {
						"age()": "2407",
						"graduate()": "2515",
						"greeting()": "infinite",
						"owner()": "2536",
						"user()": "infinite"
					}
				},
				"methodIdentifiers": {
					"age()": "262a9dff",
					"graduate()": "d3618cca",
					"greeting()": "ef690cc0",
					"owner()": "8da5cb5b",
					"user()": "4f8632ba"
				}
			},
			"storageLayout": {
				"storage": [
					{
						"astId": 4,
						"contract": "DataTypes.sol:DataType",
						"label": "age",
						"offset": 0,
						"slot": "0",
						"type": "t_uint256"
					},
					{
						"astId": 7,
						"contract": "DataTypes.sol:DataType",
						"label": "user",
						"offset": 0,
						"slot": "1",
						"type": "t_bytes_storage"
					},
					{
						"astId": 10,
						"contract": "DataTypes.sol:DataType",
						"label": "graduate",
						"offset": 0,
						"slot": "2",
						"type": "t_bool"
					},
					{
						"astId": 13,
						"contract": "DataTypes.sol:DataType",
						"label": "greeting",
						"offset": 0,
						"slot": "3",
						"type": "t_string_storage"
					},
					{
						"astId": 16,
						"contract": "DataTypes.sol:DataType",
						"label": "owner",
						"offset": 0,
						"slot": "4",
						"type": "t_address"
					}
				],
				"types": {
					"t_address": {
						"encoding": "inplace",
						"label": "address",
						"numberOfBytes": "20"
					},
					"t_bool": {
						"encoding": "inplace",
						"label": "bool",
						"numberOfBytes": "1"
					},
					"t_bytes_storage": {
						"encoding": "bytes",
						"label": "bytes",
						"numberOfBytes": "32"
					},
					"t_string_storage": {
						"encoding": "bytes",
						"label": "string",
						"numberOfBytes": "32"
					},
					"t_uint256": {
						"encoding": "inplace",
						"label": "uint256",
						"numberOfBytes": "32"
					}
				}
			},
			"userdoc": {
				"kind": "user",
				"methods": {},
				"version": 1
			}
		}
	}
}