{
	"Function.sol": {
		"Function": {
			"abi": [
				{
					"inputs": [],
					"name": "getAnswer",
					"outputs": [],
					"stateMutability": "nonpayable",
					"type": "function"
				},
				{
					"inputs": [],
					"name": "score",
					"outputs": [
						{
							"internalType": "uint256",
							"name": "",
							"type": "uint256"
						}
					],
					"stateMutability": "view",
					"type": "function"
				}
			],
			"devdoc": {
				"kind": "dev",
				"methods": {},
				"version": 1
			},
			"evm": {
				"assembly": "    /* \"Function.sol\":60:368  contract Function {... */\n  mstore(0x40, 0x80)\n  callvalue\n  dup1\n  iszero\n  tag_1\n  jumpi\n  0x00\n  dup1\n  revert\ntag_1:\n  pop\n  dataSize(sub_0)\n  dup1\n  dataOffset(sub_0)\n  0x00\n  codecopy\n  0x00\n  return\nstop\n\nsub_0: assembly {\n        /* \"Function.sol\":60:368  contract Function {... */\n      mstore(0x40, 0x80)\n      callvalue\n      dup1\n      iszero\n      tag_1\n      jumpi\n      0x00\n      dup1\n      revert\n    tag_1:\n      pop\n      jumpi(tag_2, lt(calldatasize, 0x04))\n      shr(0xe0, calldataload(0x00))\n      dup1\n      0x9c16667c\n      eq\n      tag_3\n      jumpi\n      dup1\n      0xefedc669\n      eq\n      tag_4\n      jumpi\n    tag_2:\n      0x00\n      dup1\n      revert\n        /* \"Function.sol\":114:261  function getAnswer() public {... */\n    tag_3:\n      tag_5\n      tag_6\n      jump\t// in\n    tag_5:\n      stop\n        /* \"Function.sol\":85:105  uint256 public score */\n    tag_4:\n      tag_7\n      tag_8\n      jump\t// in\n    tag_7:\n      mload(0x40)\n      tag_9\n      swap2\n      swap1\n      tag_10\n      jump\t// in\n    tag_9:\n      mload(0x40)\n      dup1\n      swap2\n      sub\n      swap1\n      return\n        /* \"Function.sol\":114:261  function getAnswer() public {... */\n    tag_6:\n        /* \"Function.sol\":153:162  uint256 a */\n      0x00\n        /* \"Function.sol\":165:166  7 */\n      0x07\n        /* \"Function.sol\":153:166  uint256 a = 7 */\n      swap1\n      pop\n        /* \"Function.sol\":177:186  uint256 b */\n      0x00\n        /* \"Function.sol\":189:190  3 */\n      0x03\n        /* \"Function.sol\":177:190  uint256 b = 3 */\n      swap1\n      pop\n        /* \"Function.sol\":201:212  uint256 ans */\n      0x00\n        /* \"Function.sol\":219:220  b */\n      dup2\n        /* \"Function.sol\":215:216  a */\n      dup4\n        /* \"Function.sol\":215:220  a + b */\n      tag_12\n      swap2\n      swap1\n      tag_13\n      jump\t// in\n    tag_12:\n        /* \"Function.sol\":201:220  uint256 ans = a + b */\n      swap1\n      pop\n        /* \"Function.sol\":241:253  getRoot(ans) */\n      tag_14\n        /* \"Function.sol\":249:252  ans */\n      dup2\n        /* \"Function.sol\":241:248  getRoot */\n      tag_15\n        /* \"Function.sol\":241:253  getRoot(ans) */\n      jump\t// in\n    tag_14:\n        /* \"Function.sol\":233:238  score */\n      0x00\n        /* \"Function.sol\":233:253  score = getRoot(ans) */\n      dup2\n      swap1\n      sstore\n      pop\n        /* \"Function.sol\":142:261  {... */\n      pop\n      pop\n      pop\n        /* \"Function.sol\":114:261  function getAnswer() public {... */\n      jump\t// out\n        /* \"Function.sol\":85:105  uint256 public score */\n    tag_8:\n      sload(0x00)\n      dup2\n      jump\t// out\n        /* \"Function.sol\":269:365  function getRoot(uint256 ans) internal pure returns (uint256) {... */\n    tag_15:\n        /* \"Function.sol\":322:329  uint256 */\n      0x00\n        /* \"Function.sol\":356:357  2 */\n      0x02\n        /* \"Function.sol\":349:352  ans */\n      dup3\n        /* \"Function.sol\":349:357  ans ** 2 */\n      tag_17\n      swap2\n      swap1\n      tag_18\n      jump\t// in\n    tag_17:\n        /* \"Function.sol\":342:357  return ans ** 2 */\n      swap1\n      pop\n        /* \"Function.sol\":269:365  function getRoot(uint256 ans) internal pure returns (uint256) {... */\n      swap2\n      swap1\n      pop\n      jump\t// out\n        /* \"#utility.yul\":7:84   */\n    tag_19:\n        /* \"#utility.yul\":44:51   */\n      0x00\n        /* \"#utility.yul\":73:78   */\n      dup2\n        /* \"#utility.yul\":62:78   */\n      swap1\n      pop\n        /* \"#utility.yul\":7:84   */\n      swap2\n      swap1\n      pop\n      jump\t// out\n        /* \"#utility.yul\":90:208   */\n    tag_20:\n        /* \"#utility.yul\":177:201   */\n      tag_29\n        /* \"#utility.yul\":195:200   */\n      dup2\n        /* \"#utility.yul\":177:201   */\n      tag_19\n      jump\t// in\n    tag_29:\n        /* \"#utility.yul\":172:175   */\n      dup3\n        /* \"#utility.yul\":165:202   */\n      mstore\n        /* \"#utility.yul\":90:208   */\n      pop\n      pop\n      jump\t// out\n        /* \"#utility.yul\":214:436   */\n    tag_10:\n        /* \"#utility.yul\":307:311   */\n      0x00\n        /* \"#utility.yul\":345:347   */\n      0x20\n        /* \"#utility.yul\":334:343   */\n      dup3\n        /* \"#utility.yul\":330:348   */\n      add\n        /* \"#utility.yul\":322:348   */\n      swap1\n      pop\n        /* \"#utility.yul\":358:429   */\n      tag_31\n        /* \"#utility.yul\":426:427   */\n      0x00\n        /* \"#utility.yul\":415:424   */\n      dup4\n        /* \"#utility.yul\":411:428   */\n      add\n        /* \"#utility.yul\":402:408   */\n      dup5\n        /* \"#utility.yul\":358:429   */\n      tag_20\n      jump\t// in\n    tag_31:\n        /* \"#utility.yul\":214:436   */\n      swap3\n      swap2\n      pop\n      pop\n      jump\t// out\n        /* \"#utility.yul\":442:622   */\n    tag_21:\n        /* \"#utility.yul\":490:567   */\n      0x4e487b7100000000000000000000000000000000000000000000000000000000\n        /* \"#utility.yul\":487:488   */\n      0x00\n        /* \"#utility.yul\":480:568   */\n      mstore\n        /* \"#utility.yul\":587:591   */\n      0x11\n        /* \"#utility.yul\":584:585   */\n      0x04\n        /* \"#utility.yul\":577:592   */\n      mstore\n        /* \"#utility.yul\":611:615   */\n      0x24\n        /* \"#utility.yul\":608:609   */\n      0x00\n        /* \"#utility.yul\":601:616   */\n      revert\n        /* \"#utility.yul\":628:819   */\n    tag_13:\n        /* \"#utility.yul\":668:671   */\n      0x00\n        /* \"#utility.yul\":687:707   */\n      tag_34\n        /* \"#utility.yul\":705:706   */\n      dup3\n        /* \"#utility.yul\":687:707   */\n      tag_19\n      jump\t// in\n    tag_34:\n        /* \"#utility.yul\":682:707   */\n      swap2\n      pop\n        /* \"#utility.yul\":721:741   */\n      tag_35\n        /* \"#utility.yul\":739:740   */\n      dup4\n        /* \"#utility.yul\":721:741   */\n      tag_19\n      jump\t// in\n    tag_35:\n        /* \"#utility.yul\":716:741   */\n      swap3\n      pop\n        /* \"#utility.yul\":764:765   */\n      dup3\n        /* \"#utility.yul\":761:762   */\n      dup3\n        /* \"#utility.yul\":757:766   */\n      add\n        /* \"#utility.yul\":750:766   */\n      swap1\n      pop\n        /* \"#utility.yul\":785:788   */\n      dup1\n        /* \"#utility.yul\":782:783   */\n      dup3\n        /* \"#utility.yul\":779:789   */\n      gt\n        /* \"#utility.yul\":776:812   */\n      iszero\n      tag_36\n      jumpi\n        /* \"#utility.yul\":792:810   */\n      tag_37\n      tag_21\n      jump\t// in\n    tag_37:\n        /* \"#utility.yul\":776:812   */\n    tag_36:\n        /* \"#utility.yul\":628:819   */\n      swap3\n      swap2\n      pop\n      pop\n      jump\t// out\n        /* \"#utility.yul\":825:927   */\n    tag_22:\n        /* \"#utility.yul\":867:875   */\n      0x00\n        /* \"#utility.yul\":914:919   */\n      dup2\n        /* \"#utility.yul\":911:912   */\n      0x01\n        /* \"#utility.yul\":907:920   */\n      shr\n        /* \"#utility.yul\":886:920   */\n      swap1\n      pop\n        /* \"#utility.yul\":825:927   */\n      swap2\n      swap1\n      pop\n      jump\t// out\n        /* \"#utility.yul\":933:1781   */\n    tag_23:\n        /* \"#utility.yul\":994:999   */\n      0x00\n        /* \"#utility.yul\":1001:1005   */\n      dup1\n        /* \"#utility.yul\":1025:1031   */\n      dup3\n        /* \"#utility.yul\":1016:1031   */\n      swap2\n      pop\n        /* \"#utility.yul\":1049:1054   */\n      dup4\n        /* \"#utility.yul\":1040:1054   */\n      swap1\n      pop\n        /* \"#utility.yul\":1063:1775   */\n    tag_40:\n        /* \"#utility.yul\":1084:1085   */\n      0x01\n        /* \"#utility.yul\":1074:1082   */\n      dup6\n        /* \"#utility.yul\":1071:1086   */\n      gt\n        /* \"#utility.yul\":1063:1775   */\n      iszero\n      tag_42\n      jumpi\n        /* \"#utility.yul\":1179:1183   */\n      dup1\n        /* \"#utility.yul\":1174:1177   */\n      dup7\n        /* \"#utility.yul\":1170:1184   */\n      div\n        /* \"#utility.yul\":1164:1168   */\n      dup2\n        /* \"#utility.yul\":1161:1185   */\n      gt\n        /* \"#utility.yul\":1158:1208   */\n      iszero\n      tag_43\n      jumpi\n        /* \"#utility.yul\":1188:1206   */\n      tag_44\n      tag_21\n      jump\t// in\n    tag_44:\n        /* \"#utility.yul\":1158:1208   */\n    tag_43:\n        /* \"#utility.yul\":1238:1239   */\n      0x01\n        /* \"#utility.yul\":1228:1236   */\n      dup6\n        /* \"#utility.yul\":1224:1240   */\n      and\n        /* \"#utility.yul\":1221:1672   */\n      iszero\n      tag_45\n      jumpi\n        /* \"#utility.yul\":1653:1657   */\n      dup1\n        /* \"#utility.yul\":1646:1651   */\n      dup3\n        /* \"#utility.yul\":1642:1658   */\n      mul\n        /* \"#utility.yul\":1633:1658   */\n      swap2\n      pop\n        /* \"#utility.yul\":1221:1672   */\n    tag_45:\n        /* \"#utility.yul\":1703:1707   */\n      dup1\n        /* \"#utility.yul\":1697:1701   */\n      dup2\n        /* \"#utility.yul\":1693:1708   */\n      mul\n        /* \"#utility.yul\":1685:1708   */\n      swap1\n      pop\n        /* \"#utility.yul\":1733:1765   */\n      tag_46\n        /* \"#utility.yul\":1756:1764   */\n      dup6\n        /* \"#utility.yul\":1733:1765   */\n      tag_22\n      jump\t// in\n    tag_46:\n        /* \"#utility.yul\":1721:1765   */\n      swap5\n      pop\n        /* \"#utility.yul\":1063:1775   */\n      jump(tag_40)\n    tag_42:\n        /* \"#utility.yul\":933:1781   */\n      swap5\n      pop\n      swap5\n      swap3\n      pop\n      pop\n      pop\n      jump\t// out\n        /* \"#utility.yul\":1787:2860   */\n    tag_24:\n        /* \"#utility.yul\":1841:1846   */\n      0x00\n        /* \"#utility.yul\":2032:2040   */\n      dup3\n        /* \"#utility.yul\":2022:2062   */\n      tag_48\n      jumpi\n        /* \"#utility.yul\":2053:2054   */\n      0x01\n        /* \"#utility.yul\":2044:2054   */\n      swap1\n      pop\n        /* \"#utility.yul\":2055:2060   */\n      jump(tag_47)\n        /* \"#utility.yul\":2022:2062   */\n    tag_48:\n        /* \"#utility.yul\":2081:2085   */\n      dup2\n        /* \"#utility.yul\":2071:2107   */\n      tag_49\n      jumpi\n        /* \"#utility.yul\":2098:2099   */\n      0x00\n        /* \"#utility.yul\":2089:2099   */\n      swap1\n      pop\n        /* \"#utility.yul\":2100:2105   */\n      jump(tag_47)\n        /* \"#utility.yul\":2071:2107   */\n    tag_49:\n        /* \"#utility.yul\":2167:2171   */\n      dup2\n        /* \"#utility.yul\":2215:2216   */\n      0x01\n        /* \"#utility.yul\":2210:2237   */\n      dup2\n      eq\n      tag_51\n      jumpi\n        /* \"#utility.yul\":2251:2252   */\n      0x02\n        /* \"#utility.yul\":2246:2437   */\n      dup2\n      eq\n      tag_52\n      jumpi\n        /* \"#utility.yul\":2160:2437   */\n      jump(tag_50)\n        /* \"#utility.yul\":2210:2237   */\n    tag_51:\n        /* \"#utility.yul\":2228:2229   */\n      0x01\n        /* \"#utility.yul\":2219:2229   */\n      swap2\n      pop\n        /* \"#utility.yul\":2230:2235   */\n      pop\n      jump(tag_47)\n        /* \"#utility.yul\":2246:2437   */\n    tag_52:\n        /* \"#utility.yul\":2291:2294   */\n      0xff\n        /* \"#utility.yul\":2281:2289   */\n      dup5\n        /* \"#utility.yul\":2278:2295   */\n      gt\n        /* \"#utility.yul\":2275:2318   */\n      iszero\n      tag_53\n      jumpi\n        /* \"#utility.yul\":2298:2316   */\n      tag_54\n      tag_21\n      jump\t// in\n    tag_54:\n        /* \"#utility.yul\":2275:2318   */\n    tag_53:\n        /* \"#utility.yul\":2347:2355   */\n      dup4\n        /* \"#utility.yul\":2344:2345   */\n      0x02\n        /* \"#utility.yul\":2340:2356   */\n      exp\n        /* \"#utility.yul\":2331:2356   */\n      swap2\n      pop\n        /* \"#utility.yul\":2382:2385   */\n      dup5\n        /* \"#utility.yul\":2375:2380   */\n      dup3\n        /* \"#utility.yul\":2372:2386   */\n      gt\n        /* \"#utility.yul\":2369:2409   */\n      iszero\n      tag_55\n      jumpi\n        /* \"#utility.yul\":2389:2407   */\n      tag_56\n      tag_21\n      jump\t// in\n    tag_56:\n        /* \"#utility.yul\":2369:2409   */\n    tag_55:\n        /* \"#utility.yul\":2422:2427   */\n      pop\n      jump(tag_47)\n        /* \"#utility.yul\":2160:2437   */\n    tag_50:\n      pop\n        /* \"#utility.yul\":2546:2548   */\n      0x20\n        /* \"#utility.yul\":2536:2544   */\n      dup4\n        /* \"#utility.yul\":2533:2549   */\n      lt\n        /* \"#utility.yul\":2527:2530   */\n      0x0133\n        /* \"#utility.yul\":2521:2525   */\n      dup4\n        /* \"#utility.yul\":2518:2531   */\n      lt\n        /* \"#utility.yul\":2514:2550   */\n      and\n        /* \"#utility.yul\":2496:2498   */\n      0x4e\n        /* \"#utility.yul\":2486:2494   */\n      dup5\n        /* \"#utility.yul\":2483:2499   */\n      lt\n        /* \"#utility.yul\":2478:2480   */\n      0x0b\n        /* \"#utility.yul\":2472:2476   */\n      dup5\n        /* \"#utility.yul\":2469:2481   */\n      lt\n        /* \"#utility.yul\":2465:2500   */\n      and\n        /* \"#utility.yul\":2449:2560   */\n      or\n        /* \"#utility.yul\":2446:2692   */\n      iszero\n      tag_57\n      jumpi\n        /* \"#utility.yul\":2602:2610   */\n      dup3\n        /* \"#utility.yul\":2596:2600   */\n      dup3\n        /* \"#utility.yul\":2592:2611   */\n      exp\n        /* \"#utility.yul\":2583:2611   */\n      swap1\n      pop\n        /* \"#utility.yul\":2637:2640   */\n      dup4\n        /* \"#utility.yul\":2630:2635   */\n      dup2\n        /* \"#utility.yul\":2627:2641   */\n      gt\n        /* \"#utility.yul\":2624:2664   */\n      iszero\n      tag_58\n      jumpi\n        /* \"#utility.yul\":2644:2662   */\n      tag_59\n      tag_21\n      jump\t// in\n    tag_59:\n        /* \"#utility.yul\":2624:2664   */\n    tag_58:\n        /* \"#utility.yul\":2677:2682   */\n      jump(tag_47)\n        /* \"#utility.yul\":2446:2692   */\n    tag_57:\n        /* \"#utility.yul\":2717:2759   */\n      tag_60\n        /* \"#utility.yul\":2755:2758   */\n      dup5\n        /* \"#utility.yul\":2745:2753   */\n      dup5\n        /* \"#utility.yul\":2739:2743   */\n      dup5\n        /* \"#utility.yul\":2736:2737   */\n      0x01\n        /* \"#utility.yul\":2717:2759   */\n      tag_23\n      jump\t// in\n    tag_60:\n        /* \"#utility.yul\":2702:2759   */\n      swap3\n      pop\n      swap1\n      pop\n        /* \"#utility.yul\":2791:2795   */\n      dup2\n        /* \"#utility.yul\":2786:2789   */\n      dup5\n        /* \"#utility.yul\":2782:2796   */\n      div\n        /* \"#utility.yul\":2775:2780   */\n      dup2\n        /* \"#utility.yul\":2772:2797   */\n      gt\n        /* \"#utility.yul\":2769:2820   */\n      iszero\n      tag_61\n      jumpi\n        /* \"#utility.yul\":2800:2818   */\n      tag_62\n      tag_21\n      jump\t// in\n    tag_62:\n        /* \"#utility.yul\":2769:2820   */\n    tag_61:\n        /* \"#utility.yul\":2849:2853   */\n      dup2\n        /* \"#utility.yul\":2842:2847   */\n      dup2\n        /* \"#utility.yul\":2838:2854   */\n      mul\n        /* \"#utility.yul\":2829:2854   */\n      swap1\n      pop\n        /* \"#utility.yul\":1787:2860   */\n    tag_47:\n      swap4\n      swap3\n      pop\n      pop\n      pop\n      jump\t// out\n        /* \"#utility.yul\":2866:2952   */\n    tag_25:\n        /* \"#utility.yul\":2901:2908   */\n      0x00\n        /* \"#utility.yul\":2941:2945   */\n      0xff\n        /* \"#utility.yul\":2934:2939   */\n      dup3\n        /* \"#utility.yul\":2930:2946   */\n      and\n        /* \"#utility.yul\":2919:2946   */\n      swap1\n      pop\n        /* \"#utility.yul\":2866:2952   */\n      swap2\n      swap1\n      pop\n      jump\t// out\n        /* \"#utility.yul\":2958:3239   */\n    tag_18:\n        /* \"#utility.yul\":3016:3021   */\n      0x00\n        /* \"#utility.yul\":3040:3063   */\n      tag_65\n        /* \"#utility.yul\":3058:3062   */\n      dup3\n        /* \"#utility.yul\":3040:3063   */\n      tag_19\n      jump\t// in\n    tag_65:\n        /* \"#utility.yul\":3032:3063   */\n      swap2\n      pop\n        /* \"#utility.yul\":3084:3109   */\n      tag_66\n        /* \"#utility.yul\":3100:3108   */\n      dup4\n        /* \"#utility.yul\":3084:3109   */\n      tag_25\n      jump\t// in\n    tag_66:\n        /* \"#utility.yul\":3072:3109   */\n      swap3\n      pop\n        /* \"#utility.yul\":3128:3232   */\n      tag_67\n        /* \"#utility.yul\":3165:3231   */\n      0xffffffffffffffffffffffffffffffffffffffffffffffffffffffffffffffff\n        /* \"#utility.yul\":3155:3163   */\n      dup5\n        /* \"#utility.yul\":3149:3153   */\n      dup5\n        /* \"#utility.yul\":3128:3232   */\n      tag_24\n      jump\t// in\n    tag_67:\n        /* \"#utility.yul\":3119:3232   */\n      swap1\n      pop\n        /* \"#utility.yul\":2958:3239   */\n      swap3\n      swap2\n      pop\n      pop\n      jump\t// out\n\n    auxdata: 0xa2646970667358221220ac84fa54b46ddfcd0700396b0a2faad8797b9b637d16d9dfd62c0ddb905d0a6464736f6c634300081a0033\n}\n",
				"bytecode": {
					"linkReferences": {},
					"object": "6080604052348015600e575f80fd5b506102f28061001c5f395ff3fe608060405234801561000f575f80fd5b5060043610610034575f3560e01c80639c16667c14610038578063efedc66914610042575b5f80fd5b610040610060565b005b61004a61008c565b60405161005791906100be565b60405180910390f35b5f600790505f600390505f81836100779190610104565b905061008281610091565b5f81905550505050565b5f5481565b5f60028261009f9190610272565b9050919050565b5f819050919050565b6100b8816100a6565b82525050565b5f6020820190506100d15f8301846100af565b92915050565b7f4e487b71000000000000000000000000000000000000000000000000000000005f52601160045260245ffd5b5f61010e826100a6565b9150610119836100a6565b9250828201905080821115610131576101306100d7565b5b92915050565b5f8160011c9050919050565b5f808291508390505b600185111561018c57808604811115610168576101676100d7565b5b60018516156101775780820291505b808102905061018585610137565b945061014c565b94509492505050565b5f826101a4576001905061025f565b816101b1575f905061025f565b81600181146101c757600281146101d157610200565b600191505061025f565b60ff8411156101e3576101e26100d7565b5b8360020a9150848211156101fa576101f96100d7565b5b5061025f565b5060208310610133831016604e8410600b84101617156102355782820a9050838111156102305761022f6100d7565b5b61025f565b6102428484846001610143565b92509050818404811115610259576102586100d7565b5b81810290505b9392505050565b5f60ff82169050919050565b5f61027c826100a6565b915061028783610266565b92506102b47fffffffffffffffffffffffffffffffffffffffffffffffffffffffffffffffff8484610195565b90509291505056fea2646970667358221220ac84fa54b46ddfcd0700396b0a2faad8797b9b637d16d9dfd62c0ddb905d0a6464736f6c634300081a0033",
					"opcodes": "PUSH1 0x80 PUSH1 0x40 MSTORE CALLVALUE DUP1 ISZERO PUSH1 0xE JUMPI PUSH0 DUP1 REVERT JUMPDEST POP PUSH2 0x2F2 DUP1 PUSH2 0x1C PUSH0 CODECOPY PUSH0 RETURN INVALID PUSH1 0x80 PUSH1 0x40 MSTORE CALLVALUE DUP1 ISZERO PUSH2 0xF JUMPI PUSH0 DUP1 REVERT JUMPDEST POP PUSH1 0x4 CALLDATASIZE LT PUSH2 0x34 JUMPI PUSH0 CALLDATALOAD PUSH1 0xE0 SHR DUP1 PUSH4 0x9C16667C EQ PUSH2 0x38 JUMPI DUP1 PUSH4 0xEFEDC669 EQ PUSH2 0x42 JUMPI JUMPDEST PUSH0 DUP1 REVERT JUMPDEST PUSH2 0x40 PUSH2 0x60 JUMP JUMPDEST STOP JUMPDEST PUSH2 0x4A PUSH2 0x8C JUMP JUMPDEST PUSH1 0x40 MLOAD PUSH2 0x57 SWAP2 SWAP1 PUSH2 0xBE JUMP JUMPDEST PUSH1 0x40 MLOAD DUP1 SWAP2 SUB SWAP1 RETURN JUMPDEST PUSH0 PUSH1 0x7 SWAP1 POP PUSH0 PUSH1 0x3 SWAP1 POP PUSH0 DUP2 DUP4 PUSH2 0x77 SWAP2 SWAP1 PUSH2 0x104 JUMP JUMPDEST SWAP1 POP PUSH2 0x82 DUP2 PUSH2 0x91 JUMP JUMPDEST PUSH0 DUP2 SWAP1 SSTORE POP POP POP POP JUMP JUMPDEST PUSH0 SLOAD DUP2 JUMP JUMPDEST PUSH0 PUSH1 0x2 DUP3 PUSH2 0x9F SWAP2 SWAP1 PUSH2 0x272 JUMP JUMPDEST SWAP1 POP SWAP2 SWAP1 POP JUMP JUMPDEST PUSH0 DUP2 SWAP1 POP SWAP2 SWAP1 POP JUMP JUMPDEST PUSH2 0xB8 DUP2 PUSH2 0xA6 JUMP JUMPDEST DUP3 MSTORE POP POP JUMP JUMPDEST PUSH0 PUSH1 0x20 DUP3 ADD SWAP1 POP PUSH2 0xD1 PUSH0 DUP4 ADD DUP5 PUSH2 0xAF JUMP JUMPDEST SWAP3 SWAP2 POP POP JUMP JUMPDEST PUSH32 0x4E487B7100000000000000000000000000000000000000000000000000000000 PUSH0 MSTORE PUSH1 0x11 PUSH1 0x4 MSTORE PUSH1 0x24 PUSH0 REVERT JUMPDEST PUSH0 PUSH2 0x10E DUP3 PUSH2 0xA6 JUMP JUMPDEST SWAP2 POP PUSH2 0x119 DUP4 PUSH2 0xA6 JUMP JUMPDEST SWAP3 POP DUP3 DUP3 ADD SWAP1 POP DUP1 DUP3 GT ISZERO PUSH2 0x131 JUMPI PUSH2 0x130 PUSH2 0xD7 JUMP JUMPDEST JUMPDEST SWAP3 SWAP2 POP POP JUMP JUMPDEST PUSH0 DUP2 PUSH1 0x1 SHR SWAP1 POP SWAP2 SWAP1 POP JUMP JUMPDEST PUSH0 DUP1 DUP3 SWAP2 POP DUP4 SWAP1 POP JUMPDEST PUSH1 0x1 DUP6 GT ISZERO PUSH2 0x18C JUMPI DUP1 DUP7 DIV DUP2 GT ISZERO PUSH2 0x168 JUMPI PUSH2 0x167 PUSH2 0xD7 JUMP JUMPDEST JUMPDEST PUSH1 0x1 DUP6 AND ISZERO PUSH2 0x177 JUMPI DUP1 DUP3 MUL SWAP2 POP JUMPDEST DUP1 DUP2 MUL SWAP1 POP PUSH2 0x185 DUP6 PUSH2 0x137 JUMP JUMPDEST SWAP5 POP PUSH2 0x14C JUMP JUMPDEST SWAP5 POP SWAP5 SWAP3 POP POP POP JUMP JUMPDEST PUSH0 DUP3 PUSH2 0x1A4 JUMPI PUSH1 0x1 SWAP1 POP PUSH2 0x25F JUMP JUMPDEST DUP2 PUSH2 0x1B1 JUMPI PUSH0 SWAP1 POP PUSH2 0x25F JUMP JUMPDEST DUP2 PUSH1 0x1 DUP2 EQ PUSH2 0x1C7 JUMPI PUSH1 0x2 DUP2 EQ PUSH2 0x1D1 JUMPI PUSH2 0x200 JUMP JUMPDEST PUSH1 0x1 SWAP2 POP POP PUSH2 0x25F JUMP JUMPDEST PUSH1 0xFF DUP5 GT ISZERO PUSH2 0x1E3 JUMPI PUSH2 0x1E2 PUSH2 0xD7 JUMP JUMPDEST JUMPDEST DUP4 PUSH1 0x2 EXP SWAP2 POP DUP5 DUP3 GT ISZERO PUSH2 0x1FA JUMPI PUSH2 0x1F9 PUSH2 0xD7 JUMP JUMPDEST JUMPDEST POP PUSH2 0x25F JUMP JUMPDEST POP PUSH1 0x20 DUP4 LT PUSH2 0x133 DUP4 LT AND PUSH1 0x4E DUP5 LT PUSH1 0xB DUP5 LT AND OR ISZERO PUSH2 0x235 JUMPI DUP3 DUP3 EXP SWAP1 POP DUP4 DUP2 GT ISZERO PUSH2 0x230 JUMPI PUSH2 0x22F PUSH2 0xD7 JUMP JUMPDEST JUMPDEST PUSH2 0x25F JUMP JUMPDEST PUSH2 0x242 DUP5 DUP5 DUP5 PUSH1 0x1 PUSH2 0x143 JUMP JUMPDEST SWAP3 POP SWAP1 POP DUP2 DUP5 DIV DUP2 GT ISZERO PUSH2 0x259 JUMPI PUSH2 0x258 PUSH2 0xD7 JUMP JUMPDEST JUMPDEST DUP2 DUP2 MUL SWAP1 POP JUMPDEST SWAP4 SWAP3 POP POP POP JUMP JUMPDEST PUSH0 PUSH1 0xFF DUP3 AND SWAP1 POP SWAP2 SWAP1 POP JUMP JUMPDEST PUSH0 PUSH2 0x27C DUP3 PUSH2 0xA6 JUMP JUMPDEST SWAP2 POP PUSH2 0x287 DUP4 PUSH2 0x266 JUMP JUMPDEST SWAP3 POP PUSH2 0x2B4 PUSH32 0xFFFFFFFFFFFFFFFFFFFFFFFFFFFFFFFFFFFFFFFFFFFFFFFFFFFFFFFFFFFFFFFF DUP5 DUP5 PUSH2 0x195 JUMP JUMPDEST SWAP1 POP SWAP3 SWAP2 POP POP JUMP INVALID LOG2 PUSH5 0x6970667358 0x22 SLT KECCAK256 0xAC DUP5 STATICCALL SLOAD 0xB4 PUSH14 0xDFCD0700396B0A2FAAD8797B9B63 PUSH30 0x16D9DFD62C0DDB905D0A6464736F6C634300081A00330000000000000000 "
				},
				"gasEstimates": {
					"creation": {
						"codeDepositCost": "150800",
						"executionCost": "194",
						"totalCost": "150994"
					},
					"external": {
						"getAnswer()": "infinite",
						"score()": "2424"
					},
					"internal": {
						"getRoot(uint256)": "infinite"
					}
				},
				"methodIdentifiers": {
					"getAnswer()": "9c16667c",
					"score()": "efedc669"
				}
			},
			"storageLayout": {
				"storage": [
					{
						"astId": 3,
						"contract": "Function.sol:Function",
						"label": "score",
						"offset": 0,
						"slot": "0",
						"type": "t_uint256"
					}
				],
				"types": {
					"t_uint256": {
						"encoding": "inplace",
						"label": "uint256",
						"numberOfBytes": "32"
					}
				}
			},
			"userdoc": {
				"kind": "user",
				"methods": {},
				"version": 1
			}
		}
	}
}