{
	"data": {
		"bytecode": {
			"linkReferences": {},
			"object": "608060405234801561001057600080fd5b50610307806100206000396000f3fe608060405234801561001057600080fd5b50600436106100365760003560e01c80639c16667c1461003b578063efedc66914610045575b600080fd5b610043610063565b005b61004d610093565b60405161005a91906100c8565b60405180910390f35b6000600790506000600390506000818361007d9190610112565b905061008881610099565b600081905550505050565b60005481565b60006002826100a89190610286565b9050919050565b6000819050919050565b6100c2816100af565b82525050565b60006020820190506100dd60008301846100b9565b92915050565b7f4e487b7100000000000000000000000000000000000000000000000000000000600052601160045260246000fd5b600061011d826100af565b9150610128836100af565b92508282019050808211156101405761013f6100e3565b5b92915050565b60008160011c9050919050565b6000808291508390505b600185111561019d57808604811115610179576101786100e3565b5b60018516156101885780820291505b808102905061019685610146565b945061015d565b94509492505050565b6000826101b65760019050610272565b816101c45760009050610272565b81600181146101da57600281146101e457610213565b6001915050610272565b60ff8411156101f6576101f56100e3565b5b8360020a91508482111561020d5761020c6100e3565b5b50610272565b5060208310610133831016604e8410600b84101617156102485782820a905083811115610243576102426100e3565b5b610272565b6102558484846001610153565b9250905081840481111561026c5761026b6100e3565b5b81810290505b9392505050565b600060ff82169050919050565b6000610291826100af565b915061029c83610279565b92506102c97fffffffffffffffffffffffffffffffffffffffffffffffffffffffffffffffff84846101a6565b90509291505056fea26469706673582212204285dd42e3b98f27d3eed4416c21e4f3e83656f3fb46bedea4806ae66cf5686e64736f6c63430008100033",
			"opcodes": "PUSH1 0x80 PUSH1 0x40 MSTORE CALLVALUE DUP1 ISZERO PUSH2 0x10 JUMPI PUSH1 0x0 DUP1 REVERT JUMPDEST POP PUSH2 0x307 DUP1 PUSH2 0x20 PUSH1 0x0 CODECOPY PUSH1 0x0 RETURN INVALID PUSH1 0x80 PUSH1 0x40 MSTORE CALLVALUE DUP1 ISZERO PUSH2 0x10 JUMPI PUSH1 0x0 DUP1 REVERT JUMPDEST POP PUSH1 0x4 CALLDATASIZE LT PUSH2 0x36 JUMPI PUSH1 0x0 CALLDATALOAD PUSH1 0xE0 SHR DUP1 PUSH4 0x9C16667C EQ PUSH2 0x3B JUMPI DUP1 PUSH4 0xEFEDC669 EQ PUSH2 0x45 JUMPI JUMPDEST PUSH1 0x0 DUP1 REVERT JUMPDEST PUSH2 0x43 PUSH2 0x63 JUMP JUMPDEST STOP JUMPDEST PUSH2 0x4D PUSH2 0x93 JUMP JUMPDEST PUSH1 0x40 MLOAD PUSH2 0x5A SWAP2 SWAP1 PUSH2 0xC8 JUMP JUMPDEST PUSH1 0x40 MLOAD DUP1 SWAP2 SUB SWAP1 RETURN JUMPDEST PUSH1 0x0 PUSH1 0x7 SWAP1 POP PUSH1 0x0 PUSH1 0x3 SWAP1 POP PUSH1 0x0 DUP2 DUP4 PUSH2 0x7D SWAP2 SWAP1 PUSH2 0x112 JUMP JUMPDEST SWAP1 POP PUSH2 0x88 DUP2 PUSH2 0x99 JUMP JUMPDEST PUSH1 0x0 DUP2 SWAP1 SSTORE POP POP POP POP JUMP JUMPDEST PUSH1 0x0 SLOAD DUP2 JUMP JUMPDEST PUSH1 0x0 PUSH1 0x2 DUP3 PUSH2 0xA8 SWAP2 SWAP1 PUSH2 0x286 JUMP JUMPDEST SWAP1 POP SWAP2 SWAP1 POP JUMP JUMPDEST PUSH1 0x0 DUP2 SWAP1 POP SWAP2 SWAP1 POP JUMP JUMPDEST PUSH2 0xC2 DUP2 PUSH2 0xAF JUMP JUMPDEST DUP3 MSTORE POP POP JUMP JUMPDEST PUSH1 0x0 PUSH1 0x20 DUP3 ADD SWAP1 POP PUSH2 0xDD PUSH1 0x0 DUP4 ADD DUP5 PUSH2 0xB9 JUMP JUMPDEST SWAP3 SWAP2 POP POP JUMP JUMPDEST PUSH32 0x4E487B7100000000000000000000000000000000000000000000000000000000 PUSH1 0x0 MSTORE PUSH1 0x11 PUSH1 0x4 MSTORE PUSH1 0x24 PUSH1 0x0 REVERT JUMPDEST PUSH1 0x0 PUSH2 0x11D DUP3 PUSH2 0xAF JUMP JUMPDEST SWAP2 POP PUSH2 0x128 DUP4 PUSH2 0xAF JUMP JUMPDEST SWAP3 POP DUP3 DUP3 ADD SWAP1 POP DUP1 DUP3 GT ISZERO PUSH2 0x140 JUMPI PUSH2 0x13F PUSH2 0xE3 JUMP JUMPDEST JUMPDEST SWAP3 SWAP2 POP POP JUMP JUMPDEST PUSH1 0x0 DUP2 PUSH1 0x1 SHR SWAP1 POP SWAP2 SWAP1 POP JUMP JUMPDEST PUSH1 0x0 DUP1 DUP3 SWAP2 POP DUP4 SWAP1 POP JUMPDEST PUSH1 0x1 DUP6 GT ISZERO PUSH2 0x19D JUMPI DUP1 DUP7 DIV DUP2 GT ISZERO PUSH2 0x179 JUMPI PUSH2 0x178 PUSH2 0xE3 JUMP JUMPDEST JUMPDEST PUSH1 0x1 DUP6 AND ISZERO PUSH2 0x188 JUMPI DUP1 DUP3 MUL SWAP2 POP JUMPDEST DUP1 DUP2 MUL SWAP1 POP PUSH2 0x196 DUP6 PUSH2 0x146 JUMP JUMPDEST SWAP5 POP PUSH2 0x15D JUMP JUMPDEST SWAP5 POP SWAP5 SWAP3 POP POP POP JUMP JUMPDEST PUSH1 0x0 DUP3 PUSH2 0x1B6 JUMPI PUSH1 0x1 SWAP1 POP PUSH2 0x272 JUMP JUMPDEST DUP2 PUSH2 0x1C4 JUMPI PUSH1 0x0 SWAP1 POP PUSH2 0x272 JUMP JUMPDEST DUP2 PUSH1 0x1 DUP2 EQ PUSH2 0x1DA JUMPI PUSH1 0x2 DUP2 EQ PUSH2 0x1E4 JUMPI PUSH2 0x213 JUMP JUMPDEST PUSH1 0x1 SWAP2 POP POP PUSH2 0x272 JUMP JUMPDEST PUSH1 0xFF DUP5 GT ISZERO PUSH2 0x1F6 JUMPI PUSH2 0x1F5 PUSH2 0xE3 JUMP JUMPDEST JUMPDEST DUP4 PUSH1 0x2 EXP SWAP2 POP DUP5 DUP3 GT ISZERO PUSH2 0x20D JUMPI PUSH2 0x20C PUSH2 0xE3 JUMP JUMPDEST JUMPDEST POP PUSH2 0x272 JUMP JUMPDEST POP PUSH1 0x20 DUP4 LT PUSH2 0x133 DUP4 LT AND PUSH1 0x4E DUP5 LT PUSH1 0xB DUP5 LT AND OR ISZERO PUSH2 0x248 JUMPI DUP3 DUP3 EXP SWAP1 POP DUP4 DUP2 GT ISZERO PUSH2 0x243 JUMPI PUSH2 0x242 PUSH2 0xE3 JUMP JUMPDEST JUMPDEST PUSH2 0x272 JUMP JUMPDEST PUSH2 0x255 DUP5 DUP5 DUP5 PUSH1 0x1 PUSH2 0x153 JUMP JUMPDEST SWAP3 POP SWAP1 POP DUP2 DUP5 DIV DUP2 GT ISZERO PUSH2 0x26C JUMPI PUSH2 0x26B PUSH2 0xE3 JUMP JUMPDEST JUMPDEST DUP2 DUP2 MUL SWAP1 POP JUMPDEST SWAP4 SWAP3 POP POP POP JUMP JUMPDEST PUSH1 0x0 PUSH1 0xFF DUP3 AND SWAP1 POP SWAP2 SWAP1 POP JUMP JUMPDEST PUSH1 0x0 PUSH2 0x291 DUP3 PUSH2 0xAF JUMP JUMPDEST SWAP2 POP PUSH2 0x29C DUP4 PUSH2 0x279 JUMP JUMPDEST SWAP3 POP PUSH2 0x2C9 PUSH32 0xFFFFFFFFFFFFFFFFFFFFFFFFFFFFFFFFFFFFFFFFFFFFFFFFFFFFFFFFFFFFFFFF DUP5 DUP5 PUSH2 0x1A6 JUMP JUMPDEST SWAP1 POP SWAP3 SWAP2 POP POP JUMP INVALID LOG2 PUSH5 0x6970667358 0x22 SLT KECCAK256 TIMESTAMP DUP6 0xDD TIMESTAMP 0xE3 0xB9 DUP16 0x27 0xD3 0xEE 0xD4 COINBASE PUSH13 0x21E4F3E83656F3FB46BEDEA480 PUSH11 0xE66CF5686E64736F6C6343 STOP ADDMOD LT STOP CALLER "
		},
		"gasEstimates": {
			"creation": {
				"codeDepositCost": "155000",
				"executionCost": "202",
				"totalCost": "155202"
			},
			"external": {
				"getAnswer()": "infinite",
				"score()": "2429"
			},
			"internal": {
				"getRoot(uint256)": "infinite"
			}
		},
		"methodIdentifiers": {
			"getAnswer()": "9c16667c",
			"score()": "efedc669"
		}
	},
	"abi": [
		{
			"inputs": [],
			"name": "getAnswer",
			"outputs": [],
			"stateMutability": "nonpayable",
			"type": "function"
		},
		{
			"inputs": [],
			"name": "score",
			"outputs": [
				{
					"internalType": "uint256",
					"name": "",
					"type": "uint256"
				}
			],
			"stateMutability": "view",
			"type": "function"
		}
	]
}